Component: ARM Compiler 5.06 update 6 (build 750) Tool: armlink [4d35ed]

==============================================================================

Section Cross References

    main.o(i.main) refers to shell.o(i.finsh_set_prompt) for finsh_set_prompt
    main.o(i.main) refers to rt_fota.o(i.rt_fota_init) for rt_fota_init
    main.o(i.rt_fota_print_log) refers to kservice.o(i.rt_kprintf) for rt_kprintf
    main.o(i.rt_fota_print_log) refers to main.o(.constdata) for .constdata
    showmem.o(i.rt_hw_show_memory) refers to kservice.o(i.rt_kprintf) for rt_kprintf
    cpuport.o(i.bus_fault_track) refers to kservice.o(i.rt_kprintf) for rt_kprintf
    cpuport.o(i.hard_fault_track) refers to kservice.o(i.rt_kprintf) for rt_kprintf
    cpuport.o(i.hard_fault_track) refers to cpuport.o(i.bus_fault_track) for bus_fault_track
    cpuport.o(i.hard_fault_track) refers to cpuport.o(i.mem_manage_fault_track) for mem_manage_fault_track
    cpuport.o(i.hard_fault_track) refers to cpuport.o(i.usage_fault_track) for usage_fault_track
    cpuport.o(i.mem_manage_fault_track) refers to kservice.o(i.rt_kprintf) for rt_kprintf
    cpuport.o(i.mem_manage_fault_track) refers to cpuport.o(i.usage_fault_track) for i.usage_fault_track
    cpuport.o(i.rt_hw_cpu_shutdown) refers to kservice.o(i.rt_kprintf) for rt_kprintf
    cpuport.o(i.rt_hw_exception_install) refers to cpuport.o(.data) for .data
    cpuport.o(i.rt_hw_hard_fault_exception) refers to kservice.o(i.rt_kprintf) for rt_kprintf
    cpuport.o(i.rt_hw_hard_fault_exception) refers to thread.o(i.rt_thread_self) for rt_thread_self
    cpuport.o(i.rt_hw_hard_fault_exception) refers to cmd.o(i.list_thread) for list_thread
    cpuport.o(i.rt_hw_hard_fault_exception) refers to cpuport.o(i.hard_fault_track) for hard_fault_track
==============================================================================

Removing Unused input sections from the image.

    Removing main.o(.rev16_text), (4 bytes).
    Removing main.o(.revsh_text), (4 bytes).
    Removing main.o(.rrx_text), (6 bytes).
    Removing main.o(i.rt_fota_print_log), (140 bytes).
    Removing main.o(.constdata), (220 bytes).
    Removing backtrace.o(i.rt_hw_backtrace), (2 bytes).
    Removing div0.o(i.__div0), (2 bytes).
    Removing showmem.o(i.rt_hw_show_memory), (88 bytes).
    Removing cpuport.o(i.rt_hw_cpu_shutdown), (24 bytes).
    Removing cpuport.o(i.rt_hw_exception_install), (12 bytes).
    Removing pin.o(i.rt_pin_attach_irq), (36 bytes).
    Removing pin.o(i.rt_pin_detach_irq), (24 bytes).
    Removing pin.o(i.rt_pin_irq_enable), (24 bytes).
    Removing completion.o(i.rt_completion_wait), (122 bytes).
    Removing dataqueue.o(i.rt_data_queue_deinit), (30 bytes).
    Removing dataqueue.o(i.rt_data_queue_init), (72 bytes).
    Removing dataqueue.o(i.rt_data_queue_len), (54 bytes).
    Removing dataqueue.o(i.rt_data_queue_peek), (64 bytes).
==============================================================================

Image Symbol Table

    Local Symbols

    Symbol Name                              Value     Ov Type        Size  Object(Section)

    ../clib/../cmprslib/zerorunl2.c          0x00000000   Number         0  __dczerorl2.o ABSOLUTE
    ../clib/microlib/ctype/ctype.c           0x00000000   Number         0  ctype_o.o ABSOLUTE
    ../clib/microlib/ctype/ctype.c           0x00000000   Number         0  isupper_o.o ABSOLUTE
    ../clib/microlib/ctype/ctype.c           0x00000000   Number         0  isspace_o.o ABSOLUTE
    ../clib/microlib/ctype/ctype.c           0x00000000   Number         0  isprint_o.o ABSOLUTE
    ../clib/microlib/ctype/ctype.c           0x00000000   Number         0  ispunct_o.o ABSOLUTE
    ../clib/microlib/ctype/ctype.c           0x00000000   Number         0  islower_o.o ABSOLUTE
    ../clib/microlib/ctype/ctype.c           0x00000000   Number         0  isgraph_o.o ABSOLUTE
    ../clib/microlib/ctype/ctype.c           0x00000000   Number         0  isdigit_o.o ABSOLUTE
    ../clib/microlib/ctype/ctype.c           0x00000000   Number         0  iscntrl_o.o ABSOLUTE
    ../clib/microlib/ctype/ctype.c           0x00000000   Number         0  isblank_o.o ABSOLUTE
    ../clib/microlib/ctype/ctype.c           0x00000000   Number         0  isalpha_o.o ABSOLUTE
    ../clib/microlib/ctype/ctype.c           0x00000000   Number         0  isxdigit_o.o ABSOLUTE
    ../clib/microlib/ctype/ctype.c           0x00000000   Number         0  isalnum_o.o ABSOLUTE
    ../clib/microlib/division.c              0x00000000   Number         0  uldiv.o ABSOLUTE
    ../clib/microlib/division.c              0x00000000   Number         0  uidiv.o ABSOLUTE
    ../clib/microlib/division.c              0x00000000   Number         0  ldiv.o ABSOLUTE
    ../clib/microlib/errno.c                 0x00000000   Number         0  errno.o ABSOLUTE
    ../clib/microlib/init/entry.s            0x00000000   Number         0  entry10b.o ABSOLUTE
    ../clib/microlib/init/entry.s            0x00000000   Number         0  entry9a.o ABSOLUTE
    ../clib/microlib/init/entry.s            0x00000000   Number         0  entry2.o ABSOLUTE
    ../clib/microlib/init/entry.s            0x00000000   Number         0  entry10a.o ABSOLUTE
    ../clib/microlib/init/entry.s            0x00000000   Number         0  entry11b.o ABSOLUTE
    ../clib/microlib/init/entry.s            0x00000000   Number         0  entry11a.o ABSOLUTE
    ../clib/microlib/init/entry.s            0x00000000   Number         0  entry7a.o ABSOLUTE
    ../clib/microlib/init/entry.s            0x00000000   Number         0  entry.o ABSOLUTE
    ../clib/microlib/init/entry.s            0x00000000   Number         0  entry9b.o ABSOLUTE
    ../clib/microlib/init/entry.s            0x00000000   Number         0  entry5.o ABSOLUTE
    ../clib/microlib/init/entry.s            0x00000000   Number         0  entry7b.o ABSOLUTE
    ../clib/microlib/init/entry.s            0x00000000   Number         0  entry8a.o ABSOLUTE
    ../clib/microlib/init/entry.s            0x00000000   Number         0  entry8b.o ABSOLUTE
    ../clib/microlib/longlong.c              0x00000000   Number         0  llushr.o ABSOLUTE
    ../clib/microlib/longlong.c              0x00000000   Number         0  llsshr.o ABSOLUTE
    ../clib/microlib/longlong.c              0x00000000   Number         0  llshl.o ABSOLUTE
    ../clib/microlib/malloc/malloc.c         0x00000000   Number         0  mallocra.o ABSOLUTE
    ../clib/microlib/malloc/malloc.c         0x00000000   Number         0  malloca.o ABSOLUTE
    ../clib/microlib/malloc/malloc.c         0x00000000   Number         0  mallocr.o ABSOLUTE
    ../clib/microlib/malloc/malloc.c         0x00000000   Number         0  malloc.o ABSOLUTE
    ../clib/microlib/malloc/mvars.c          0x00000000   Number         0  mvars.o ABSOLUTE
    ../clib/microlib/printf/printf.c         0x00000000   Number         0  printf0.o ABSOLUTE
    ../clib/microlib/printf/printf.c         0x00000000   Number         0  printf5.o ABSOLUTE
    ../clib/microlib/printf/printf.c         0x00000000   Number         0  printf1.o ABSOLUTE
    ../clib/microlib/printf/printf.c         0x00000000   Number         0  printf3.o ABSOLUTE
    ../clib/microlib/printf/printf.c         0x00000000   Number         0  printf8.o ABSOLUTE
    ../clib/microlib/printf/printf.c         0x00000000   Number         0  printf7.o ABSOLUTE
    ../clib/microlib/printf/printf.c         0x00000000   Number         0  printf2.o ABSOLUTE
    ../clib/microlib/printf/printf.c         0x00000000   Number         0  printf6.o ABSOLUTE
    ../clib/microlib/printf/printf.c         0x00000000   Number         0  printf4.o ABSOLUTE
    ../clib/microlib/printf/printf.c         0x00000000   Number         0  printfa.o ABSOLUTE
    ../clib/microlib/printf/printf.c         0x00000000   Number         0  printfb.o ABSOLUTE
    ../clib/microlib/printf/stubs.s          0x00000000   Number         0  stubs.o ABSOLUTE
    ../clib/microlib/stdio/fputc.c           0x00000000   Number         0  fputc.o ABSOLUTE
    ../clib/microlib/stdio/semi.s            0x00000000   Number         0  semi.o ABSOLUTE
    ../clib/microlib/stdio/streams.c         0x00000000   Number         0  stdout.o ABSOLUTE
    ../clib/microlib/string/memcmp.c         0x00000000   Number         0  memcmp.o ABSOLUTE
    ../clib/microlib/string/memcpy.c         0x00000000   Number         0  memcpyb.o ABSOLUTE
    ../clib/microlib/string/memcpy.c         0x00000000   Number         0  memcpya.o ABSOLUTE
    ../clib/microlib/string/memset.c         0x00000000   Number         0  memseta.o ABSOLUTE
    ../clib/microlib/string/strcat.c         0x00000000   Number         0  strcat.o ABSOLUTE
    ../clib/microlib/string/strcmp.c         0x00000000   Number         0  strcmp.o ABSOLUTE
    ../clib/microlib/string/strcpy.c         0x00000000   Number         0  strcpy.o ABSOLUTE
    ../clib/microlib/string/strlen.c         0x00000000   Number         0  strlen.o ABSOLUTE
    ../clib/microlib/string/strncmp.c        0x00000000   Number         0  strncmp.o ABSOLUTE
    ../clib/microlib/string/strncpy.c        0x00000000   Number         0  strncpy.o ABSOLUTE
    ../clib/microlib/string/strrchr.c        0x00000000   Number         0  strrchr.o ABSOLUTE
    ../clib/microlib/string/strstr.c         0x00000000   Number         0  strstr.o ABSOLUTE
    ../clib/microlib/stubs.s                 0x00000000   Number         0  iusesemip.o ABSOLUTE
    ../clib/microlib/stubs.s                 0x00000000   Number         0  iusefp.o ABSOLUTE
    ../clib/scanf.c                          0x00000000   Number         0  atol.o ABSOLUTE
    ../clib/scanf.c                          0x00000000   Number         0  _strtoul.o ABSOLUTE
    ../clib/scanf.c                          0x00000000   Number         0  _chval.o ABSOLUTE
    ../clib/scanf.c                          0x00000000   Number         0  strtol.o ABSOLUTE
    ../fplib/microlib/fpadd.c                0x00000000   Number         0  dadd.o ABSOLUTE
    ../fplib/microlib/fpdiv.c                0x00000000   Number         0  ddiv.o ABSOLUTE
    ../fplib/microlib/fpepilogue.c           0x00000000   Number         0  depilogue.o ABSOLUTE
    ../fplib/microlib/fpfix.c                0x00000000   Number         0  dfixul.o ABSOLUTE
    ../fplib/microlib/fpmul.c                0x00000000   Number         0  dmul.o ABSOLUTE
    applications\\main.c                     0x00000000   Number         0  main.o ABSOLUTE
    applications\main.c                      0x00000000   Number         0  main.o ABSOLUTE
    board\\board.c                           0x00000000   Number         0  board.o ABSOLUTE
    board\\fota\\rt_fota.c                   0x00000000   Number         0  rt_fota.o ABSOLUTE
    board\board.c                            0x00000000   Number         0  board.o ABSOLUTE
    board\fota\rt_fota.c                     0x00000000   Number         0  rt_fota.o ABSOLUTE
    board\fota\rt_fota_crc.c                 0x00000000   Number         0  rt_fota_crc.o ABSOLUTE
    cdrcmple.s                               0x00000000   Number         0  cdrcmple.o ABSOLUTE
    dc.s                                     0x00000000   Number         0  dc.o ABSOLUTE
    handlers.s                               0x00000000   Number         0  handlers.o ABSOLUTE
    init.s                                   0x00000000   Number         0  init.o ABSOLUTE
    libraries\GD32F4xx_Firmware_Library\CMSIS\GD\GD32F4xx\Source\ARM\startup_gd32f4xx.s 0x00000000   Number         0  startup_gd32f4xx.o ABSOLUTE
    libraries\GD32F4xx_Firmware_Library\CMSIS\GD\GD32F4xx\Source\system_gd32f4xx.c 0x00000000   Number         0  system_gd32f4xx.o ABSOLUTE
    libraries\GD32F4xx_Firmware_Library\GD32F4xx_standard_peripheral\Source\gd32f4xx_exti.c 0x00000000   Number         0  gd32f4xx_exti.o ABSOLUTE
    libraries\GD32F4xx_Firmware_Library\GD32F4xx_standard_peripheral\Source\gd32f4xx_fmc.c 0x00000000   Number         0  gd32f4xx_fmc.o ABSOLUTE
    libraries\GD32F4xx_Firmware_Library\GD32F4xx_standard_peripheral\Source\gd32f4xx_fwdgt.c 0x00000000   Number         0  gd32f4xx_fwdgt.o ABSOLUTE
    libraries\GD32F4xx_Firmware_Library\GD32F4xx_standard_peripheral\Source\gd32f4xx_gpio.c 0x00000000   Number         0  gd32f4xx_gpio.o ABSOLUTE
    libraries\GD32F4xx_Firmware_Library\GD32F4xx_standard_peripheral\Source\gd32f4xx_misc.c 0x00000000   Number         0  gd32f4xx_misc.o ABSOLUTE
    libraries\GD32F4xx_Firmware_Library\GD32F4xx_standard_peripheral\Source\gd32f4xx_rcu.c 0x00000000   Number         0  gd32f4xx_rcu.o ABSOLUTE
    libraries\GD32F4xx_Firmware_Library\GD32F4xx_standard_peripheral\Source\gd32f4xx_syscfg.c 0x00000000   Number         0  gd32f4xx_syscfg.o ABSOLUTE
    libraries\GD32F4xx_Firmware_Library\GD32F4xx_standard_peripheral\Source\gd32f4xx_timer.c 0x00000000   Number         0  gd32f4xx_timer.o ABSOLUTE
    libraries\GD32F4xx_Firmware_Library\GD32F4xx_standard_peripheral\Source\gd32f4xx_usart.c 0x00000000   Number         0  gd32f4xx_usart.o ABSOLUTE
    libraries\GD32F4xx_Firmware_Library\GD32F4xx_standard_peripheral\Source\gd32f4xx_wwdgt.c 0x00000000   Number         0  gd32f4xx_wwdgt.o ABSOLUTE
    libraries\\GD32F4xx_Firmware_Library\\CMSIS\\GD\\GD32F4xx\\Source\\system_gd32f4xx.c 0x00000000   Number         0  system_gd32f4xx.o ABSOLUTE
    libraries\\GD32F4xx_Firmware_Library\\GD32F4xx_standard_peripheral\\Source\\gd32f4xx_exti.c 0x00000000   Number         0  gd32f4xx_exti.o ABSOLUTE
    libraries\\GD32F4xx_Firmware_Library\\GD32F4xx_standard_peripheral\\Source\\gd32f4xx_fmc.c 0x00000000   Number         0  gd32f4xx_fmc.o ABSOLUTE
    libraries\\GD32F4xx_Firmware_Library\\GD32F4xx_standard_peripheral\\Source\\gd32f4xx_fwdgt.c 0x00000000   Number         0  gd32f4xx_fwdgt.o ABSOLUTE
    libraries\\GD32F4xx_Firmware_Library\\GD32F4xx_standard_peripheral\\Source\\gd32f4xx_gpio.c 0x00000000   Number         0  gd32f4xx_gpio.o ABSOLUTE
    libraries\\GD32F4xx_Firmware_Library\\GD32F4xx_standard_peripheral\\Source\\gd32f4xx_misc.c 0x00000000   Number         0  gd32f4xx_misc.o ABSOLUTE
    libraries\\GD32F4xx_Firmware_Library\\GD32F4xx_standard_peripheral\\Source\\gd32f4xx_rcu.c 0x00000000   Number         0  gd32f4xx_rcu.o ABSOLUTE
    libraries\\GD32F4xx_Firmware_Library\\GD32F4xx_standard_peripheral\\Source\\gd32f4xx_syscfg.c 0x00000000   Number         0  gd32f4xx_syscfg.o ABSOLUTE
    libraries\\GD32F4xx_Firmware_Library\\GD32F4xx_standard_peripheral\\Source\\gd32f4xx_timer.c 0x00000000   Number         0  gd32f4xx_timer.o ABSOLUTE
    libraries\\GD32F4xx_Firmware_Library\\GD32F4xx_standard_peripheral\\Source\\gd32f4xx_usart.c 0x00000000   Number         0  gd32f4xx_usart.o ABSOLUTE
    libraries\\GD32F4xx_Firmware_Library\\GD32F4xx_standard_peripheral\\Source\\gd32f4xx_wwdgt.c 0x00000000   Number         0  gd32f4xx_wwdgt.o ABSOLUTE
    libraries\\gd32_drivers\\drv_flash.c     0x00000000   Number         0  drv_flash.o ABSOLUTE
    libraries\\gd32_drivers\\drv_gpio.c      0x00000000   Number         0  drv_gpio.o ABSOLUTE
    libraries\\gd32_drivers\\drv_usart.c     0x00000000   Number         0  drv_usart.o ABSOLUTE
    libraries\\gd32_drivers\\drv_wdt.c       0x00000000   Number         0  drv_wdt.o ABSOLUTE
    libraries\\gd32_drivers\\fmc_operation.c 0x00000000   Number         0  fmc_operation.o ABSOLUTE
    libraries\gd32_drivers\drv_flash.c       0x00000000   Number         0  drv_flash.o ABSOLUTE
    libraries\gd32_drivers\drv_gpio.c        0x00000000   Number         0  drv_gpio.o ABSOLUTE
    libraries\gd32_drivers\drv_usart.c       0x00000000   Number         0  drv_usart.o ABSOLUTE
    libraries\gd32_drivers\drv_wdt.c         0x00000000   Number         0  drv_wdt.o ABSOLUTE
    libraries\gd32_drivers\fmc_operation.c   0x00000000   Number         0  fmc_operation.o ABSOLUTE
    packages\SignalLed-v1.2.0\src\signal_led.c 0x00000000   Number         0  signal_led.o ABSOLUTE
    packages\\SignalLed-v1.2.0\\src\\signal_led.c 0x00000000   Number         0  signal_led.o ABSOLUTE
    packages\\fal-v0.5.0\\samples\\porting\\fal_flash_sfud_port.c 0x00000000   Number         0  fal_flash_sfud_port.o ABSOLUTE
    packages\\fal-v0.5.0\\src\\fal.c         0x00000000   Number         0  fal.o ABSOLUTE
    packages\\fal-v0.5.0\\src\\fal_flash.c   0x00000000   Number         0  fal_flash.o ABSOLUTE
    packages\\fal-v0.5.0\\src\\fal_partition.c 0x00000000   Number         0  fal_partition.o ABSOLUTE
    packages\\fal-v0.5.0\\src\\fal_rtt.c     0x00000000   Number         0  fal_rtt.o ABSOLUTE
    packages\\ota_downloader-v1.0.0\\src\\ymodem_ota.c 0x00000000   Number         0  ymodem_ota.o ABSOLUTE
    packages\fal-v0.5.0\samples\porting\fal_flash_sfud_port.c 0x00000000   Number         0  fal_flash_sfud_port.o ABSOLUTE
    packages\fal-v0.5.0\src\fal.c            0x00000000   Number         0  fal.o ABSOLUTE
    packages\fal-v0.5.0\src\fal_flash.c      0x00000000   Number         0  fal_flash.o ABSOLUTE
    packages\fal-v0.5.0\src\fal_partition.c  0x00000000   Number         0  fal_partition.o ABSOLUTE
    packages\fal-v0.5.0\src\fal_rtt.c        0x00000000   Number         0  fal_rtt.o ABSOLUTE
    packages\fastlz-v1.0.1\fastlz.c          0x00000000   Number         0  fastlz.o ABSOLUTE
    packages\fastlz-v1.0.1\fastlz_sample.c   0x00000000   Number         0  fastlz_sample.o ABSOLUTE
    packages\ota_downloader-v1.0.0\src\ymodem_ota.c 0x00000000   Number         0  ymodem_ota.o ABSOLUTE
    packages\quicklz-v1.0.1\quicklz.c        0x00000000   Number         0  quicklz.o ABSOLUTE
    packages\tinycrypt-v1.0.0\src\tiny_aes.c 0x00000000   Number         0  tiny_aes.o ABSOLUTE
    packages\tinycrypt-v1.0.0\src\tiny_base64.c 0x00000000   Number         0  tiny_base64.o ABSOLUTE
    packages\tinycrypt-v1.0.0\src\tiny_md5.c 0x00000000   Number         0  tiny_md5.o ABSOLUTE
    packages\tinycrypt-v1.0.0\src\tiny_sha1.c 0x00000000   Number         0  tiny_sha1.o ABSOLUTE
    packages\tinycrypt-v1.0.0\src\tiny_sha2.c 0x00000000   Number         0  tiny_sha2.o ABSOLUTE
    rt-thread\components\dfs\filesystems\devfs\devfs.c 0x00000000   Number         0  devfs.o ABSOLUTE
    rt-thread\components\dfs\src\dfs.c       0x00000000   Number         0  dfs.o ABSOLUTE
    rt-thread\components\dfs\src\dfs_file.c  0x00000000   Number         0  dfs_file.o ABSOLUTE
    rt-thread\components\dfs\src\dfs_fs.c    0x00000000   Number         0  dfs_fs.o ABSOLUTE
    rt-thread\components\dfs\src\dfs_posix.c 0x00000000   Number         0  dfs_posix.o ABSOLUTE
    rt-thread\components\drivers\misc\pin.c  0x00000000   Number         0  pin.o ABSOLUTE
    rt-thread\components\drivers\serial\serial.c 0x00000000   Number         0  serial.o ABSOLUTE
    rt-thread\components\drivers\src\completion.c 0x00000000   Number         0  completion.o ABSOLUTE
    rt-thread\components\drivers\src\dataqueue.c 0x00000000   Number         0  dataqueue.o ABSOLUTE
    rt-thread\components\drivers\src\pipe.c  0x00000000   Number         0  pipe.o ABSOLUTE
    rt-thread\components\drivers\src\ringblk_buf.c 0x00000000   Number         0  ringblk_buf.o ABSOLUTE
    rt-thread\components\drivers\src\ringbuffer.c 0x00000000   Number         0  ringbuffer.o ABSOLUTE
    rt-thread\components\drivers\src\waitqueue.c 0x00000000   Number         0  waitqueue.o ABSOLUTE
    rt-thread\components\drivers\src\workqueue.c 0x00000000   Number         0  workqueue.o ABSOLUTE
    rt-thread\components\drivers\watchdog\watchdog.c 0x00000000   Number         0  watchdog.o ABSOLUTE
    rt-thread\components\finsh\cmd.c         0x00000000   Number         0  cmd.o ABSOLUTE
    rt-thread\components\finsh\msh.c         0x00000000   Number         0  msh.o ABSOLUTE
    rt-thread\components\finsh\msh_file.c    0x00000000   Number         0  msh_file.o ABSOLUTE
    rt-thread\components\finsh\shell.c       0x00000000   Number         0  shell.o ABSOLUTE
    rt-thread\components\utilities\ymodem\ymodem.c 0x00000000   Number         0  ymodem.o ABSOLUTE
    rt-thread\libcpu\arm\common\backtrace.c  0x00000000   Number         0  backtrace.o ABSOLUTE
    rt-thread\libcpu\arm\common\div0.c       0x00000000   Number         0  div0.o ABSOLUTE
    rt-thread\libcpu\arm\common\showmem.c    0x00000000   Number         0  showmem.o ABSOLUTE
    rt-thread\libcpu\arm\cortex-m4\context_rvds.S 0x00000000   Number         0  context_rvds.o ABSOLUTE
    rt-thread\libcpu\arm\cortex-m4\cpuport.c 0x00000000   Number         0  cpuport.o ABSOLUTE
    rt-thread\src\clock.c                    0x00000000   Number         0  clock.o ABSOLUTE
    rt-thread\src\components.c               0x00000000   Number         0  components.o ABSOLUTE
    rt-thread\src\device.c                   0x00000000   Number         0  device.o ABSOLUTE
    rt-thread\src\idle.c                     0x00000000   Number         0  idle.o ABSOLUTE
    rt-thread\src\ipc.c                      0x00000000   Number         0  ipc.o ABSOLUTE
    rt-thread\src\irq.c                      0x00000000   Number         0  irq.o ABSOLUTE
    rt-thread\src\kservice.c                 0x00000000   Number         0  kservice.o ABSOLUTE
    rt-thread\src\mem.c                      0x00000000   Number         0  mem.o ABSOLUTE
    rt-thread\src\memheap.c                  0x00000000   Number         0  memheap.o ABSOLUTE
    rt-thread\src\mempool.c                  0x00000000   Number         0  mempool.o ABSOLUTE
    rt-thread\src\object.c                   0x00000000   Number         0  object.o ABSOLUTE
    rt-thread\src\scheduler.c                0x00000000   Number         0  scheduler.o ABSOLUTE
    rt-thread\src\signal.c                   0x00000000   Number         0  signal.o ABSOLUTE
    rt-thread\src\thread.c                   0x00000000   Number         0  thread.o ABSOLUTE
    rt-thread\src\timer.c                    0x00000000   Number         0  timer.o ABSOLUTE
    RESET                                    0x08000000   Section      424  startup_gd32f4xx.o(RESET)
    .ARM.Collect$$$$00000000                 0x080001a8   Section        0  entry.o(.ARM.Collect$$$$00000000)
    .ARM.Collect$$$$00000001                 0x080001a8   Section        4  entry2.o(.ARM.Collect$$$$00000001)
    .ARM.Collect$$$$00000004                 0x080001ac   Section        4  entry5.o(.ARM.Collect$$$$00000004)
    .ARM.Collect$$$$00000008                 0x080001b0   Section        0  entry7b.o(.ARM.Collect$$$$00000008)
    .ARM.Collect$$$$0000000A                 0x080001b0   Section        0  entry8b.o(.ARM.Collect$$$$0000000A)
    .ARM.Collect$$$$0000000B                 0x080001b0   Section        8  entry9a.o(.ARM.Collect$$$$0000000B)
    .ARM.Collect$$$$0000000D                 0x080001b8   Section        0  entry10a.o(.ARM.Collect$$$$0000000D)
    .ARM.Collect$$$$0000000F                 0x080001b8   Section        0  entry11a.o(.ARM.Collect$$$$0000000F)
    .ARM.Collect$$$$00002712                 0x080001b8   Section        4  entry2.o(.ARM.Collect$$$$00002712)
    __lit__00000000                          0x080001b8   Data           4  entry2.o(.ARM.Collect$$$$00002712)
    .text                                    0x080001bc   Section      308  context_rvds.o(.text)
    $v0                                      0x080001bc   Number         0  context_rvds.o(.text)
    .text                                    0x080002f0   Section       36  startup_gd32f4xx.o(.text)
    $v0                                      0x080002f0   Number         0  startup_gd32f4xx.o(.text)
    .text                                    0x08000314   Section        0  ldiv.o(.text)
    .text                                    0x08000376   Section        0  memcpya.o(.text)
    .text                                    0x0800039a   Section        0  memseta.o(.text)
    .text                                    0x080003be   Section        0  strcat.o(.text)
    .text                                    0x080003d6   Section        0  strstr.o(.text)
    .text                                    0x080003fa   Section        0  strncpy.o(.text)
    .text                                    0x08000412   Section        0  strlen.o(.text)
    .text                                    0x08000420   Section        0  strcmp.o(.text)
    .text                                    0x0800043c   Section        0  memcmp.o(.text)
    .text                                    0x08000456   Section        0  strcpy.o(.text)
    .text                                    0x08000468   Section        0  strncmp.o(.text)
    .text                                    0x08000486   Section        0  strrchr.o(.text)
    .text                                    0x080004a6   Section        0  strtol.o(.text)
    .text                                    0x08000516   Section        0  atol.o(.text)
    .text                                    0x08000530   Section        0  uldiv.o(.text)
    .text                                    0x08000594   Section        0  ctype_o.o(.text)
    .text                                    0x0800059c   Section        0  _strtoul.o(.text)
    .text                                    0x0800063c   Section       36  init.o(.text)
    .text                                    0x08000660   Section        0  llshl.o(.text)
    .text                                    0x08000660   Section        0  semi.o(.text)
    .text                                    0x0800067e   Section        0  llushr.o(.text)
    .text                                    0x0800069e   Section        0  _chval.o(.text)
    .text                                    0x080006ba   Section        0  __dczerorl2.o(.text)
    .text                                    0x080006ba   Section        0  iusesemip.o(.text)
    i.$Sub$$main                             0x08000710   Section        0  components.o(i.$Sub$$main)
    i.CRC16                                  0x0800071a   Section        0  ymodem.o(i.CRC16)
    CRC16                                    0x0800071b   Thumb Code    56  ymodem.o(i.CRC16)
    i.EXTI0_IRQHandler                       0x08000752   Section        0  drv_gpio.o(i.EXTI0_IRQHandler)
    i.EXTI10_15_IRQHandler                   0x08000766   Section        0  drv_gpio.o(i.EXTI10_15_IRQHandler)
    i.EXTI1_IRQHandler                       0x08000798   Section        0  drv_gpio.o(i.EXTI1_IRQHandler)
    i.EXTI2_IRQHandler                       0x080007ac   Section        0  drv_gpio.o(i.EXTI2_IRQHandler)
    i.EXTI3_IRQHandler                       0x080007c0   Section        0  drv_gpio.o(i.EXTI3_IRQHandler)
    i.EXTI4_IRQHandler                       0x080007d4   Section        0  drv_gpio.o(i.EXTI4_IRQHandler)
    i.EXTI5_9_IRQHandler                     0x080007e8   Section        0  drv_gpio.o(i.EXTI5_9_IRQHandler)
    i.GD32_GPIO_EXTI_IRQHandler              0x08000814   Section        0  drv_gpio.o(i.GD32_GPIO_EXTI_IRQHandler)
    i.NVIC_EnableIRQ                         0x08000848   Section        0  drv_usart.o(i.NVIC_EnableIRQ)
    NVIC_EnableIRQ                           0x08000849   Thumb Code    22  drv_usart.o(i.NVIC_EnableIRQ)
    i.NVIC_SetPriority                       0x0800085e   Section        0  board.o(i.NVIC_SetPriority)
    NVIC_SetPriority                         0x0800085f   Thumb Code    32  board.o(i.NVIC_SetPriority)
    i.SysTick_Handler                        0x0800087e   Section        0  board.o(i.SysTick_Handler)
    i.SystemClock_Config                     0x08000890   Section        0  board.o(i.SystemClock_Config)
    i.SystemInit                             0x080008d8   Section        0  system_gd32f4xx.o(i.SystemInit)
    i.USART0_IRQHandler                      0x08000944   Section        0  drv_usart.o(i.USART0_IRQHandler)
    i.__0printf$8                            0x08000984   Section        0  printf8.o(i.__0printf$8)
    i.__aeabi_errno_addr                     0x080009a4   Section        0  errno.o(i.__aeabi_errno_addr)
    i.__rt_ffs                               0x080009ac   Section        0  kservice.o(i.__rt_ffs)
    i.__scatterload_copy                     0x080009f0   Section       14  handlers.o(i.__scatterload_copy)
    i.__scatterload_null                     0x080009fe   Section        2  handlers.o(i.__scatterload_null)
    i.__scatterload_zeroinit                 0x08000a00   Section       14  handlers.o(i.__scatterload_zeroinit)
    i._get_path_lastname                     0x08000a0e   Section        0  dfs_file.o(i._get_path_lastname)
    _get_path_lastname                       0x08000a0f   Thumb Code    20  dfs_file.o(i._get_path_lastname)
    i._msh_exec_cmd                          0x08000a24   Section        0  msh.o(i._msh_exec_cmd)
    _msh_exec_cmd                            0x08000a25   Thumb Code   142  msh.o(i._msh_exec_cmd)
    i._pin_control                           0x08000ac4   Section        0  pin.o(i._pin_control)
    _pin_control                             0x08000ac5   Thumb Code    26  pin.o(i._pin_control)
    i._pin_read                              0x08000ade   Section        0  pin.o(i._pin_read)
    _pin_read                                0x08000adf   Thumb Code    30  pin.o(i._pin_read)
    i._pin_write                             0x08000afc   Section        0  pin.o(i._pin_write)
    _pin_write                               0x08000afd   Thumb Code    30  pin.o(i._pin_write)
    i._printf_core                           0x08000b1c   Section        0  printf8.o(i._printf_core)
    _printf_core                             0x08000b1d   Thumb Code   996  printf8.o(i._printf_core)
    i._printf_post_padding                   0x08000f2c   Section        0  printf8.o(i._printf_post_padding)
    _printf_post_padding                     0x08000f2d   Thumb Code    36  printf8.o(i._printf_post_padding)
    i._printf_pre_padding                    0x08000f50   Section        0  printf8.o(i._printf_pre_padding)
    _printf_pre_padding                      0x08000f51   Thumb Code    46  printf8.o(i._printf_pre_padding)
    i._rt_scheduler_stack_check              0x08000f80   Section        0  scheduler.o(i._rt_scheduler_stack_check)
    _rt_scheduler_stack_check                0x08000f81   Thumb Code    60  scheduler.o(i._rt_scheduler_stack_check)
    i._rt_thread_init                        0x08001010   Section        0  thread.o(i._rt_thread_init)
    _rt_thread_init                          0x08001011   Thumb Code   118  thread.o(i._rt_thread_init)
    i._rt_timer_init                         0x08001094   Section        0  timer.o(i._rt_timer_init)
    _rt_timer_init                           0x08001095   Thumb Code    38  timer.o(i._rt_timer_init)
    i._rt_timer_remove                       0x080010ba   Section        0  timer.o(i._rt_timer_remove)
    _rt_timer_remove                         0x080010bb   Thumb Code    24  timer.o(i._rt_timer_remove)
    i._rym_do_fin                            0x080010d2   Section        0  ymodem.o(i._rym_do_fin)
    _rym_do_fin                              0x080010d3   Thumb Code   200  ymodem.o(i._rym_do_fin)
    i._rym_do_handshake                      0x0800119a   Section        0  ymodem.o(i._rym_do_handshake)
    _rym_do_handshake                        0x0800119b   Thumb Code   210  ymodem.o(i._rym_do_handshake)
    i._rym_do_recv                           0x0800126c   Section        0  ymodem.o(i._rym_do_recv)
    _rym_do_recv                             0x0800126d   Thumb Code    78  ymodem.o(i._rym_do_recv)
    i._rym_do_trans                          0x080012ba   Section        0  ymodem.o(i._rym_do_trans)
    _rym_do_trans                            0x080012bb   Thumb Code   124  ymodem.o(i._rym_do_trans)
    i._rym_putchar                           0x08001336   Section        0  ymodem.o(i._rym_putchar)
    _rym_putchar                             0x08001337   Thumb Code    18  ymodem.o(i._rym_putchar)
    i._rym_read_code                         0x08001348   Section        0  ymodem.o(i._rym_read_code)
    _rym_read_code                           0x08001349   Thumb Code    62  ymodem.o(i._rym_read_code)
    i._rym_read_data                         0x08001386   Section        0  ymodem.o(i._rym_read_data)
    _rym_read_data                           0x08001387   Thumb Code    58  ymodem.o(i._rym_read_data)
    i._rym_rx_ind                            0x080013c0   Section        0  ymodem.o(i._rym_rx_ind)
    _rym_rx_ind                              0x080013c1   Thumb Code    10  ymodem.o(i._rym_rx_ind)
    i._rym_trans_data                        0x080013d0   Section        0  ymodem.o(i._rym_trans_data)
    _rym_trans_data                          0x080013d1   Thumb Code   114  ymodem.o(i._rym_trans_data)
    i._thread_cleanup_execute                0x08001442   Section        0  thread.o(i._thread_cleanup_execute)
    _thread_cleanup_execute                  0x08001443   Thumb Code    28  thread.o(i._thread_cleanup_execute)
    i.bit2bitno                              0x0800145e   Section        0  drv_gpio.o(i.bit2bitno)
    bit2bitno                                0x0800145f   Thumb Code    28  drv_gpio.o(i.bit2bitno)
    i.bus_fault_track                        0x0800147c   Section        0  cpuport.o(i.bus_fault_track)
    bus_fault_track                          0x0800147d   Thumb Code   110  cpuport.o(i.bus_fault_track)
    i.calc                                   0x08001564   Section        0  rt_fota.o(i.calc)
    calc                                     0x08001565   Thumb Code    26  rt_fota.o(i.calc)
    i.cat                                    0x08001584   Section        0  dfs_file.o(i.cat)
    i.chdir                                  0x080015e4   Section        0  dfs_posix.o(i.chdir)
    i.clear                                  0x08001660   Section        0  cmd.o(i.clear)
    clear                                    0x08001661   Thumb Code    12  cmd.o(i.clear)
    i.close                                  0x08001674   Section        0  dfs_posix.o(i.close)
    i.closedir                               0x080016ac   Section        0  dfs_posix.o(i.closedir)
    i.cmd_cat                                0x080016f4   Section        0  msh_file.o(i.cmd_cat)
    i.cmd_cd                                 0x08001754   Section        0  msh_file.o(i.cmd_cd)
    i.cmd_cp                                 0x0800179c   Section        0  msh_file.o(i.cmd_cp)
    i.cmd_df                                 0x080017f0   Section        0  msh_file.o(i.cmd_df)
    i.cmd_echo                               0x08001840   Section        0  msh_file.o(i.cmd_echo)
    i.cmd_free                               0x080018d0   Section        0  msh.o(i.cmd_free)
    i.cmd_ls                                 0x080018dc   Section        0  msh_file.o(i.cmd_ls)
    i.cmd_mkdir                              0x080018f4   Section        0  msh_file.o(i.cmd_mkdir)
    i.cmd_mkfs                               0x08001970   Section        0  msh_file.o(i.cmd_mkfs)
    i.cmd_mv                                 0x080019ec   Section        0  msh_file.o(i.cmd_mv)
    i.cmd_ps                                 0x08001b0c   Section        0  msh.o(i.cmd_ps)
    i.cmd_pwd                                0x08001b18   Section        0  msh_file.o(i.cmd_pwd)
    i.cmd_rm                                 0x08001b30   Section        0  msh_file.o(i.cmd_rm)
    i.copy                                   0x08001cd8   Section        0  dfs_file.o(i.copy)
    i.copydir                                0x08001e08   Section        0  dfs_file.o(i.copydir)
    copydir                                  0x08001e09   Thumb Code   224  dfs_file.o(i.copydir)
    i.copyfile                               0x08001f28   Section        0  dfs_file.o(i.copyfile)
    copyfile                                 0x08001f29   Thumb Code   150  dfs_file.o(i.copyfile)
    i.crc32                                  0x0800201c   Section        0  rt_fota_crc.o(i.crc32)
    crc32                                    0x0800201d   Thumb Code    30  rt_fota_crc.o(i.crc32)
    i.devfs_init                             0x08002040   Section        0  devfs.o(i.devfs_init)
    i.df                                     0x08002050   Section        0  dfs_fs.o(i.df)
    i.dfs_device_fs_close                    0x0800213c   Section        0  devfs.o(i.dfs_device_fs_close)
    i.dfs_device_fs_getdents                 0x08002162   Section        0  devfs.o(i.dfs_device_fs_getdents)
    i.dfs_device_fs_ioctl                    0x080021c8   Section        0  devfs.o(i.dfs_device_fs_ioctl)
    i.dfs_device_fs_mount                    0x080021ce   Section        0  devfs.o(i.dfs_device_fs_mount)
    i.dfs_device_fs_open                     0x080021d2   Section        0  devfs.o(i.dfs_device_fs_open)
    i.dfs_device_fs_poll                     0x0800227c   Section        0  devfs.o(i.dfs_device_fs_poll)
    dfs_device_fs_poll                       0x0800227d   Thumb Code     4  devfs.o(i.dfs_device_fs_poll)
    i.dfs_device_fs_read                     0x08002280   Section        0  devfs.o(i.dfs_device_fs_read)
    i.dfs_device_fs_stat                     0x08002298   Section        0  devfs.o(i.dfs_device_fs_stat)
    i.dfs_device_fs_write                    0x080022fe   Section        0  devfs.o(i.dfs_device_fs_write)
    i.dfs_file_close                         0x08002316   Section        0  dfs_file.o(i.dfs_file_close)
    i.dfs_file_getdents                      0x08002342   Section        0  dfs_file.o(i.dfs_file_getdents)
    i.dfs_file_lseek                         0x0800235e   Section        0  dfs_file.o(i.dfs_file_lseek)
    i.dfs_file_open                          0x08002384   Section        0  dfs_file.o(i.dfs_file_open)
    i.dfs_file_read                          0x08002444   Section        0  dfs_file.o(i.dfs_file_read)
    i.dfs_file_rename                        0x0800246e   Section        0  dfs_file.o(i.dfs_file_rename)
    i.dfs_file_stat                          0x080024f4   Section        0  dfs_file.o(i.dfs_file_stat)
    i.dfs_file_unlink                        0x0800258c   Section        0  dfs_file.o(i.dfs_file_unlink)
    i.dfs_file_write                         0x08002608   Section        0  dfs_file.o(i.dfs_file_write)
    i.dfs_filesystem_lookup                  0x08002620   Section        0  dfs_fs.o(i.dfs_filesystem_lookup)
    i.dfs_init                               0x08002684   Section        0  dfs.o(i.dfs_init)
    i.dfs_lock                               0x08002714   Section        0  dfs.o(i.dfs_lock)
    i.dfs_mkfs                               0x0800272c   Section        0  dfs_fs.o(i.dfs_mkfs)
    i.dfs_mount                              0x08002790   Section        0  dfs_fs.o(i.dfs_mount)
    i.dfs_normalize_path                     0x080028dc   Section        0  dfs.o(i.dfs_normalize_path)
    i.dfs_register                           0x080029e0   Section        0  dfs_fs.o(i.dfs_register)
    i.dfs_statfs                             0x08002a48   Section        0  dfs_fs.o(i.dfs_statfs)
    i.dfs_subdir                             0x08002a66   Section        0  dfs.o(i.dfs_subdir)
    i.dfs_unlock                             0x08002a98   Section        0  dfs.o(i.dfs_unlock)
    i.directory_delete_for_msh               0x08002aa4   Section        0  msh_file.o(i.directory_delete_for_msh)
    directory_delete_for_msh                 0x08002aa5   Thumb Code   208  msh_file.o(i.directory_delete_for_msh)
    i.exti_init                              0x08002bc0   Section        0  gd32f4xx_exti.o(i.exti_init)
    i.exti_interrupt_flag_clear              0x08002c28   Section        0  gd32f4xx_exti.o(i.exti_interrupt_flag_clear)
    i.exti_interrupt_flag_get                0x08002c34   Section        0  gd32f4xx_exti.o(i.exti_interrupt_flag_get)
    i.fal                                    0x08002c58   Section        0  fal_rtt.o(i.fal)
    fal                                      0x08002c59   Thumb Code  1820  fal_rtt.o(i.fal)
    i.fal_flash_device_find                  0x08003544   Section        0  fal_flash.o(i.fal_flash_device_find)
    i.fal_flash_erase                        0x0800356c   Section        0  drv_flash.o(i.fal_flash_erase)
    fal_flash_erase                          0x0800356d   Thumb Code    82  drv_flash.o(i.fal_flash_erase)
    i.fal_flash_init                         0x080035c0   Section        0  fal_flash.o(i.fal_flash_init)
    i.fal_flash_read                         0x080035ec   Section        0  drv_flash.o(i.fal_flash_read)
    fal_flash_read                           0x080035ed   Thumb Code    14  drv_flash.o(i.fal_flash_read)
    i.fal_flash_write                        0x080035fa   Section        0  drv_flash.o(i.fal_flash_write)
    fal_flash_write                          0x080035fb   Thumb Code    14  drv_flash.o(i.fal_flash_write)
    i.fal_init                               0x08003608   Section        0  fal.o(i.fal_init)
    i.fal_init_check                         0x08003714   Section        0  fal.o(i.fal_init_check)
    i.fal_partition_erase                    0x08003720   Section        0  fal_partition.o(i.fal_partition_erase)
    i.fal_partition_find                     0x08003844   Section        0  fal_partition.o(i.fal_partition_find)
    i.fal_partition_init                     0x08003878   Section        0  fal_partition.o(i.fal_partition_init)
    i.fal_partition_read                     0x08003918   Section        0  fal_partition.o(i.fal_partition_read)
    i.fal_partition_write                    0x08003a3c   Section        0  fal_partition.o(i.fal_partition_write)
    i.fal_show_part_table                    0x08003b64   Section        0  fal_partition.o(i.fal_show_part_table)
    i.fast_read                              0x08003dac   Section        0  quicklz.o(i.fast_read)
    fast_read                                0x08003dad   Thumb Code    46  quicklz.o(i.fast_read)
    i.fastlz1_compress                       0x08003dda   Section        0  fastlz.o(i.fastlz1_compress)
    fastlz1_compress                         0x08003ddb   Thumb Code   566  fastlz.o(i.fastlz1_compress)
    i.fastlz1_decompress                     0x08004010   Section        0  fastlz.o(i.fastlz1_decompress)
    fastlz1_decompress                       0x08004011   Thumb Code   212  fastlz.o(i.fastlz1_decompress)
    i.fastlz2_compress                       0x080040e4   Section        0  fastlz.o(i.fastlz2_compress)
    fastlz2_compress                         0x080040e5   Thumb Code   698  fastlz.o(i.fastlz2_compress)
    i.fastlz2_decompress                     0x080043a4   Section        0  fastlz.o(i.fastlz2_decompress)
    fastlz2_decompress                       0x080043a5   Thumb Code   248  fastlz.o(i.fastlz2_decompress)
    i.fastlz_compress_file                   0x0800449c   Section        0  fastlz_sample.o(i.fastlz_compress_file)
    fastlz_compress_file                     0x0800449d   Thumb Code   294  fastlz_sample.o(i.fastlz_compress_file)
    i.fastlz_compress_level                  0x0800461c   Section        0  fastlz.o(i.fastlz_compress_level)
    i.fastlz_decompress                      0x08004648   Section        0  fastlz.o(i.fastlz_decompress)
    i.fastlz_decompress_file                 0x0800466c   Section        0  fastlz_sample.o(i.fastlz_decompress_file)
    fastlz_decompress_file                   0x0800466d   Thumb Code   264  fastlz_sample.o(i.fastlz_decompress_file)
    i.fastlz_test                            0x08004824   Section        0  fastlz_sample.o(i.fastlz_test)
    i.fd_alloc                               0x080049b0   Section        0  dfs.o(i.fd_alloc)
    fd_alloc                                 0x080049b1   Thumb Code   112  dfs.o(i.fd_alloc)
    i.fd_get                                 0x08004a20   Section        0  dfs.o(i.fd_get)
    i.fd_is_open                             0x08004a6c   Section        0  dfs.o(i.fd_is_open)
    i.fd_new                                 0x08004b00   Section        0  dfs.o(i.fd_new)
    i.fd_put                                 0x08004b40   Section        0  dfs.o(i.fd_put)
    i.finsh_get_password                     0x08004b8c   Section        0  shell.o(i.finsh_get_password)
    i.finsh_get_prompt                       0x08004b9c   Section        0  shell.o(i.finsh_get_prompt)
    i.finsh_getchar                          0x08004c14   Section        0  shell.o(i.finsh_getchar)
    finsh_getchar                            0x08004c15   Thumb Code    52  shell.o(i.finsh_getchar)
    i.finsh_rx_ind                           0x08004c4c   Section        0  shell.o(i.finsh_rx_ind)
    finsh_rx_ind                             0x08004c4d   Thumb Code    14  shell.o(i.finsh_rx_ind)
    i.finsh_set_device                       0x08004c60   Section        0  shell.o(i.finsh_set_device)
    i.finsh_set_password                     0x08004d10   Section        0  shell.o(i.finsh_set_password)
    i.finsh_set_prompt                       0x08004d4c   Section        0  shell.o(i.finsh_set_prompt)
    i.finsh_set_prompt_mode                  0x08004d80   Section        0  shell.o(i.finsh_set_prompt_mode)
    i.finsh_system_function_init             0x08004d94   Section        0  shell.o(i.finsh_system_function_init)
    i.finsh_system_init                      0x08004da0   Section        0  shell.o(i.finsh_system_init)
    i.finsh_thread_entry                     0x08004e34   Section        0  shell.o(i.finsh_thread_entry)
    i.finsh_wait_auth                        0x080051cc   Section        0  shell.o(i.finsh_wait_auth)
    finsh_wait_auth                          0x080051cd   Thumb Code   164  shell.o(i.finsh_wait_auth)
    i.fmc_byte_program                       0x08005294   Section        0  gd32f4xx_fmc.o(i.fmc_byte_program)
    i.fmc_flag_clear                         0x080052cc   Section        0  gd32f4xx_fmc.o(i.fmc_flag_clear)
    i.fmc_lock                               0x080052d8   Section        0  gd32f4xx_fmc.o(i.fmc_lock)
    i.fmc_page_erase                         0x080052e8   Section        0  gd32f4xx_fmc.o(i.fmc_page_erase)
    i.fmc_read_8bit_data                     0x08005360   Section        0  fmc_operation.o(i.fmc_read_8bit_data)
    i.fmc_ready_wait                         0x080053bc   Section        0  gd32f4xx_fmc.o(i.fmc_ready_wait)
    i.fmc_state_get                          0x080053c8   Section        0  gd32f4xx_fmc.o(i.fmc_state_get)
    i.fmc_unlock                             0x08005404   Section        0  gd32f4xx_fmc.o(i.fmc_unlock)
    i.fmc_write_8bit_data                    0x08005428   Section        0  fmc_operation.o(i.fmc_write_8bit_data)
    i.fputc                                  0x080054d0   Section        0  fputc.o(i.fputc)
    i.free                                   0x080054e4   Section        0  malloc.o(i.free)
    i.fwdgt_config                           0x08005534   Section        0  gd32f4xx_fwdgt.o(i.fwdgt_config)
    i.fwdgt_counter_reload                   0x08005584   Section        0  gd32f4xx_fwdgt.o(i.fwdgt_counter_reload)
    i.fwdgt_enable                           0x08005594   Section        0  gd32f4xx_fwdgt.o(i.fwdgt_enable)
    i.fwdgt_write_disable                    0x080055a4   Section        0  gd32f4xx_fwdgt.o(i.fwdgt_write_disable)
    i.fwdgt_write_enable                     0x080055b0   Section        0  gd32f4xx_fwdgt.o(i.fwdgt_write_enable)
    i.gd32_hw_usart_init                     0x080055c0   Section        0  drv_usart.o(i.gd32_hw_usart_init)
    i.gd32_pin_attach_irq                    0x08005604   Section        0  drv_gpio.o(i.gd32_pin_attach_irq)
    gd32_pin_attach_irq                      0x08005605   Thumb Code   138  drv_gpio.o(i.gd32_pin_attach_irq)
    i.gd32_pin_detach_irq                    0x08005694   Section        0  drv_gpio.o(i.gd32_pin_detach_irq)
    gd32_pin_detach_irq                      0x08005695   Thumb Code    82  drv_gpio.o(i.gd32_pin_detach_irq)
    i.gd32_pin_irq_enable                    0x080056ec   Section        0  drv_gpio.o(i.gd32_pin_irq_enable)
    gd32_pin_irq_enable                      0x080056ed   Thumb Code   192  drv_gpio.o(i.gd32_pin_irq_enable)
    i.gd32_pin_mode                          0x080057b4   Section        0  drv_gpio.o(i.gd32_pin_mode)
    gd32_pin_mode                            0x080057b5   Thumb Code   100  drv_gpio.o(i.gd32_pin_mode)
    i.gd32_pin_read                          0x08005818   Section        0  drv_gpio.o(i.gd32_pin_read)
    gd32_pin_read                            0x08005819   Thumb Code    28  drv_gpio.o(i.gd32_pin_read)
    i.gd32_pin_write                         0x08005834   Section        0  drv_gpio.o(i.gd32_pin_write)
    gd32_pin_write                           0x08005835   Thumb Code    28  drv_gpio.o(i.gd32_pin_write)
    i.gd32_uart_configure                    0x08005850   Section        0  drv_usart.o(i.gd32_uart_configure)
    gd32_uart_configure                      0x08005851   Thumb Code   130  drv_usart.o(i.gd32_uart_configure)
    i.gd32_uart_control                      0x080058d2   Section        0  drv_usart.o(i.gd32_uart_control)
    gd32_uart_control                        0x080058d3   Thumb Code    70  drv_usart.o(i.gd32_uart_control)
    i.gd32_uart_getc                         0x08005918   Section        0  drv_usart.o(i.gd32_uart_getc)
    gd32_uart_getc                           0x08005919   Thumb Code    30  drv_usart.o(i.gd32_uart_getc)
    i.gd32_uart_gpio_init                    0x08005936   Section        0  drv_usart.o(i.gd32_uart_gpio_init)
    i.gd32_uart_putc                         0x080059bc   Section        0  drv_usart.o(i.gd32_uart_putc)
    gd32_uart_putc                           0x080059bd   Thumb Code    26  drv_usart.o(i.gd32_uart_putc)
    i.gd32_wdt_control                       0x080059d8   Section        0  drv_wdt.o(i.gd32_wdt_control)
    gd32_wdt_control                         0x080059d9   Thumb Code    90  drv_wdt.o(i.gd32_wdt_control)
    i.gd32_wdt_init                          0x08005a3c   Section        0  drv_wdt.o(i.gd32_wdt_init)
    gd32_wdt_init                            0x08005a3d   Thumb Code    58  drv_wdt.o(i.gd32_wdt_init)
    i.get_page                               0x08005a7c   Section        0  gd32f4xx_fmc.o(i.get_page)
    i.get_pin                                0x08005ab4   Section        0  drv_gpio.o(i.get_pin)
    i.getcwd                                 0x08005ad0   Section        0  dfs_posix.o(i.getcwd)
    i.gpio_af_set                            0x08005af0   Section        0  gd32f4xx_gpio.o(i.gpio_af_set)
    i.gpio_bit_write                         0x08005b46   Section        0  gd32f4xx_gpio.o(i.gpio_bit_write)
    i.gpio_input_bit_get                     0x08005b50   Section        0  gd32f4xx_gpio.o(i.gpio_input_bit_get)
    i.gpio_mode_set                          0x08005b5a   Section        0  gd32f4xx_gpio.o(i.gpio_mode_set)
    i.gpio_output_options_set                0x08005ba2   Section        0  gd32f4xx_gpio.o(i.gpio_output_options_set)
    i.hard_fault_track                       0x08005be0   Section        0  cpuport.o(i.hard_fault_track)
    hard_fault_track                         0x08005be1   Thumb Code    76  cpuport.o(i.hard_fault_track)
    i.hello                                  0x08005c58   Section        0  cmd.o(i.hello)
    i.led_create                             0x08005c78   Section        0  signal_led.o(i.led_create)
    i.led_get_blink_arr                      0x08005cac   Section        0  signal_led.o(i.led_get_blink_arr)
    led_get_blink_arr                        0x08005cad   Thumb Code   140  signal_led.o(i.led_get_blink_arr)
    i.led_handle                             0x08005d3c   Section        0  signal_led.o(i.led_handle)
    led_handle                               0x08005d3d   Thumb Code   134  signal_led.o(i.led_handle)
    i.led_malloc                             0x08005dc4   Section        0  signal_led.o(i.led_malloc)
    led_malloc                               0x08005dc5   Thumb Code     6  signal_led.o(i.led_malloc)
    i.led_set_blink_over_callback            0x08005dd0   Section        0  signal_led.o(i.led_set_blink_over_callback)
    i.led_set_mem_operation                  0x08005dd8   Section        0  signal_led.o(i.led_set_mem_operation)
    i.led_set_mode                           0x08005df4   Section        0  signal_led.o(i.led_set_mode)
    i.led_start                              0x08005e0c   Section        0  signal_led.o(i.led_start)
    i.led_stop                               0x08005e34   Section        0  signal_led.o(i.led_stop)
    i.led_ticks                              0x08005e5c   Section        0  signal_led.o(i.led_ticks)
    i.list                                   0x08005e78   Section        0  cmd.o(i.list)
    i.list_device                            0x08005edc   Section        0  cmd.o(i.list_device)
    i.list_event                             0x08005fe0   Section        0  cmd.o(i.list_event)
    i.list_fd                                0x08006110   Section        0  dfs.o(i.list_fd)
    i.list_find_init                         0x08006240   Section        0  cmd.o(i.list_find_init)
    list_find_init                           0x08006241   Thumb Code    36  cmd.o(i.list_find_init)
    i.list_get_next                          0x08006264   Section        0  cmd.o(i.list_get_next)
    list_get_next                            0x08006265   Thumb Code   106  cmd.o(i.list_get_next)
    i.list_mailbox                           0x080062d0   Section        0  cmd.o(i.list_mailbox)
    i.list_mem                               0x08006410   Section        0  mem.o(i.list_mem)
    i.list_memheap                           0x0800647c   Section        0  cmd.o(i.list_memheap)
    i.list_mempool                           0x0800658c   Section        0  cmd.o(i.list_mempool)
    i.list_msgqueue                          0x080066e0   Section        0  cmd.o(i.list_msgqueue)
    i.list_mutex                             0x0800680c   Section        0  cmd.o(i.list_mutex)
    i.list_sem                               0x08006904   Section        0  cmd.o(i.list_sem)
    i.list_thread                            0x08006a24   Section        0  cmd.o(i.list_thread)
    i.list_timer                             0x08006bdc   Section        0  cmd.o(i.list_timer)
    i.ls                                     0x08006d1c   Section        0  dfs_file.o(i.ls)
    i.lseek                                  0x08006e34   Section        0  dfs_posix.o(i.lseek)
    i.main                                   0x08006e94   Section        0  main.o(i.main)
    i.main_thread_entry                      0x08006eb0   Section        0  components.o(i.main_thread_entry)
    i.malloc                                 0x08006ec0   Section        0  malloc.o(i.malloc)
    i.mem_manage_fault_track                 0x08006f2c   Section        0  cpuport.o(i.mem_manage_fault_track)
    mem_manage_fault_track                   0x08006f2d   Thumb Code    98  cpuport.o(i.mem_manage_fault_track)
    i.memcheck                               0x08007004   Section        0  mem.o(i.memcheck)
    i.memcpy_up                              0x080070d4   Section        0  quicklz.o(i.memcpy_up)
    memcpy_up                                0x080070d5   Thumb Code    18  quicklz.o(i.memcpy_up)
    i.memtrace                               0x080070e8   Section        0  mem.o(i.memtrace)
    i.mkdir                                  0x08007234   Section        0  dfs_posix.o(i.mkdir)
    i.mkfs                                   0x0800728c   Section        0  dfs_fs.o(i.mkfs)
    i.msh_auto_complete                      0x08007290   Section        0  msh.o(i.msh_auto_complete)
    i.msh_auto_complete_path                 0x0800734c   Section        0  msh.o(i.msh_auto_complete_path)
    i.msh_exec                               0x080074a8   Section        0  msh.o(i.msh_exec)
    i.msh_exec_script                        0x0800751c   Section        0  msh_file.o(i.msh_exec_script)
    i.msh_help                               0x08007668   Section        0  msh.o(i.msh_help)
    i.msh_is_used                            0x080076e0   Section        0  msh.o(i.msh_is_used)
    i.msh_split                              0x080076e4   Section        0  msh.o(i.msh_split)
    msh_split                                0x080076e5   Thumb Code   170  msh.o(i.msh_split)
    i.nvic_irq_disable                       0x080077b4   Section        0  gd32f4xx_misc.o(i.nvic_irq_disable)
    i.nvic_irq_enable                        0x080077cc   Section        0  gd32f4xx_misc.o(i.nvic_irq_enable)
    i.nvic_priority_group_set                0x08007860   Section        0  gd32f4xx_misc.o(i.nvic_priority_group_set)
    i.nvic_vector_table_set                  0x08007874   Section        0  gd32f4xx_misc.o(i.nvic_vector_table_set)
    i.object_split                           0x08007888   Section        0  cmd.o(i.object_split)
    object_split                             0x08007889   Thumb Code    18  cmd.o(i.object_split)
    i.open                                   0x080078a0   Section        0  dfs_posix.o(i.open)
    i.opendir                                0x080078ec   Section        0  dfs_posix.o(i.opendir)
    i.plug_holes                             0x08007960   Section        0  mem.o(i.plug_holes)
    plug_holes                               0x08007961   Thumb Code    82  mem.o(i.plug_holes)
    i.print_number                           0x080079b8   Section        0  kservice.o(i.print_number)
    print_number                             0x080079b9   Thumb Code   294  kservice.o(i.print_number)
    i.qlz_decompress                         0x08007ae4   Section        0  quicklz.o(i.qlz_decompress)
    i.qlz_decompress_core                    0x08007b24   Section        0  quicklz.o(i.qlz_decompress_core)
    qlz_decompress_core                      0x08007b25   Thumb Code   284  quicklz.o(i.qlz_decompress_core)
    i.qlz_size_compressed                    0x08007c44   Section        0  quicklz.o(i.qlz_size_compressed)
    i.qlz_size_decompressed                  0x08007c6c   Section        0  quicklz.o(i.qlz_size_decompressed)
    i.qlz_size_header                        0x08007c96   Section        0  quicklz.o(i.qlz_size_header)
    i.rcu_clock_freq_get                     0x08007cac   Section        0  gd32f4xx_rcu.o(i.rcu_clock_freq_get)
    i.rcu_deinit                             0x08007d84   Section        0  gd32f4xx_rcu.o(i.rcu_deinit)
    i.rcu_flag_get                           0x08007dec   Section        0  gd32f4xx_rcu.o(i.rcu_flag_get)
    i.rcu_osci_on                            0x08007e10   Section        0  gd32f4xx_rcu.o(i.rcu_osci_on)
    i.rcu_osci_stab_wait                     0x08007e30   Section        0  gd32f4xx_rcu.o(i.rcu_osci_stab_wait)
    i.rcu_periph_clock_enable                0x08007f1c   Section        0  gd32f4xx_rcu.o(i.rcu_periph_clock_enable)
    i.rcu_periph_reset_disable               0x08007f3c   Section        0  gd32f4xx_rcu.o(i.rcu_periph_reset_disable)
    i.rcu_periph_reset_enable                0x08007f5c   Section        0  gd32f4xx_rcu.o(i.rcu_periph_reset_enable)
    i.read                                   0x08007f7c   Section        0  dfs_posix.o(i.read)
    i.readdir                                0x08007fbc   Section        0  dfs_posix.o(i.readdir)
    i.rename                                 0x08008026   Section        0  dfs_posix.o(i.rename)
    i.rewinddir                              0x0800803e   Section        0  dfs_posix.o(i.rewinddir)
    i.rm                                     0x08008078   Section        0  dfs_file.o(i.rm)
    i.rt_application_init                    0x080080a8   Section        0  components.o(i.rt_application_init)
    i.rt_calloc                              0x080080d4   Section        0  mem.o(i.rt_calloc)
    i.rt_completion_done                     0x080080ee   Section        0  completion.o(i.rt_completion_done)
    i.rt_completion_init                     0x08008128   Section        0  completion.o(i.rt_completion_init)
    i.rt_components_board_init               0x08008140   Section        0  components.o(i.rt_components_board_init)
    i.rt_components_init                     0x0800815c   Section        0  components.o(i.rt_components_init)
    i.rt_console_get_device                  0x08008178   Section        0  kservice.o(i.rt_console_get_device)
    i.rt_console_set_device                  0x08008184   Section        0  kservice.o(i.rt_console_set_device)
    i.rt_device_close                        0x080081b4   Section        0  device.o(i.rt_device_close)
    i.rt_device_control                      0x080081e4   Section        0  device.o(i.rt_device_control)
    i.rt_device_find                         0x080081f0   Section        0  device.o(i.rt_device_find)
    i.rt_device_open                         0x080081f8   Section        0  device.o(i.rt_device_open)
    i.rt_device_pin_register                 0x080082a0   Section        0  pin.o(i.rt_device_pin_register)
    i.rt_device_read                         0x080082e4   Section        0  device.o(i.rt_device_read)
    i.rt_device_register                     0x08008308   Section        0  device.o(i.rt_device_register)
    i.rt_device_set_rx_indicate              0x0800833a   Section        0  device.o(i.rt_device_set_rx_indicate)
    i.rt_device_write                        0x08008340   Section        0  device.o(i.rt_device_write)
    i.rt_enter_critical                      0x08008364   Section        0  scheduler.o(i.rt_enter_critical)
    i.rt_exit_critical                       0x08008380   Section        0  scheduler.o(i.rt_exit_critical)
    i.rt_fota_check_defalut_key              0x080083b8   Section        0  rt_fota.o(i.rt_fota_check_defalut_key)
    rt_fota_check_defalut_key                0x080083b9   Thumb Code   106  rt_fota.o(i.rt_fota_check_defalut_key)
    i.rt_fota_check_hash                     0x08008448   Section        0  rt_fota.o(i.rt_fota_check_hash)
    i.rt_fota_check_upgrade                  0x08008a54   Section        0  rt_fota.o(i.rt_fota_check_upgrade)
    i.rt_fota_copy_version                   0x08008a70   Section        0  rt_fota.o(i.rt_fota_copy_version)
    i.rt_fota_crc                            0x08008bd0   Section        0  rt_fota_crc.o(i.rt_fota_crc)
    i.rt_fota_crc_init                       0x08008be4   Section        0  rt_fota_crc.o(i.rt_fota_crc_init)
    i.rt_fota_erase_app_part                 0x08008c38   Section        0  rt_fota.o(i.rt_fota_erase_app_part)
    i.rt_fota_info                           0x08008cb4   Section        0  rt_fota.o(i.rt_fota_info)
    i.rt_fota_init                           0x08009248   Section        0  rt_fota.o(i.rt_fota_init)
    i.rt_fota_part_fw_verify                 0x080092c4   Section        0  rt_fota.o(i.rt_fota_part_fw_verify)
    i.rt_fota_read_part                      0x080093bc   Section        0  rt_fota.o(i.rt_fota_read_part)
    rt_fota_read_part                        0x080093bd   Thumb Code   158  rt_fota.o(i.rt_fota_read_part)
    i.rt_fota_rx_ind                         0x0800945c   Section        0  rt_fota.o(i.rt_fota_rx_ind)
    rt_fota_rx_ind                           0x0800945d   Thumb Code    14  rt_fota.o(i.rt_fota_rx_ind)
    i.rt_fota_set_device                     0x08009470   Section        0  rt_fota.o(i.rt_fota_set_device)
    rt_fota_set_device                       0x08009471   Thumb Code    88  rt_fota.o(i.rt_fota_set_device)
    i.rt_fota_signal_led_entry               0x080094dc   Section        0  rt_fota.o(i.rt_fota_signal_led_entry)
    rt_fota_signal_led_entry                 0x080094dd   Thumb Code    12  rt_fota.o(i.rt_fota_signal_led_entry)
    i.rt_fota_signal_led_init                0x080094e8   Section        0  rt_fota.o(i.rt_fota_signal_led_init)
    rt_fota_signal_led_init                  0x080094e9   Thumb Code    94  rt_fota.o(i.rt_fota_signal_led_init)
    i.rt_fota_signal_led_mode                0x08009568   Section        0  rt_fota.o(i.rt_fota_signal_led_mode)
    rt_fota_signal_led_mode                  0x08009569   Thumb Code    12  rt_fota.o(i.rt_fota_signal_led_mode)
    i.rt_fota_signal_led_off                 0x08009578   Section        0  rt_fota.o(i.rt_fota_signal_led_off)
    rt_fota_signal_led_off                   0x08009579   Thumb Code     8  rt_fota.o(i.rt_fota_signal_led_off)
    i.rt_fota_signal_led_on                  0x08009580   Section        0  rt_fota.o(i.rt_fota_signal_led_on)
    rt_fota_signal_led_on                    0x08009581   Thumb Code     8  rt_fota.o(i.rt_fota_signal_led_on)
    i.rt_fota_start_application              0x08009588   Section        0  rt_fota.o(i.rt_fota_start_application)
    rt_fota_start_application                0x08009589   Thumb Code  1252  rt_fota.o(i.rt_fota_start_application)
    i.rt_fota_step_crc                       0x08009a90   Section        0  rt_fota_crc.o(i.rt_fota_step_crc)
    i.rt_fota_thread_entry                   0x08009a94   Section        0  rt_fota.o(i.rt_fota_thread_entry)
    i.rt_fota_upgrade                        0x08009cdc   Section        0  rt_fota.o(i.rt_fota_upgrade)
    i.rt_fota_write_app_part                 0x0800a278   Section        0  rt_fota.o(i.rt_fota_write_app_part)
    i.rt_free                                0x0800a2b0   Section        0  mem.o(i.rt_free)
    i.rt_hw_board_init                       0x0800a388   Section        0  board.o(i.rt_hw_board_init)
    i.rt_hw_console_output                   0x0800a3c8   Section        0  kservice.o(i.rt_hw_console_output)
    i.rt_hw_cpu_reset                        0x0800a3cc   Section        0  cpuport.o(i.rt_hw_cpu_reset)
    i.rt_hw_hard_fault_exception             0x0800a3dc   Section        0  cpuport.o(i.rt_hw_hard_fault_exception)
    i.rt_hw_pin_init                         0x0800a5f4   Section        0  drv_gpio.o(i.rt_hw_pin_init)
    i.rt_hw_serial_isr                       0x0800a608   Section        0  serial.o(i.rt_hw_serial_isr)
    i.rt_hw_serial_register                  0x0800a6b8   Section        0  serial.o(i.rt_hw_serial_register)
    i.rt_hw_stack_init                       0x0800a6fc   Section        0  cpuport.o(i.rt_hw_stack_init)
    i.rt_hw_watchdog_register                0x0800a738   Section        0  watchdog.o(i.rt_hw_watchdog_register)
    i.rt_hw_wdt_init                         0x0800a774   Section        0  drv_wdt.o(i.rt_hw_wdt_init)
    rt_hw_wdt_init                           0x0800a775   Thumb Code    32  drv_wdt.o(i.rt_hw_wdt_init)
    i.rt_interrupt_enter                     0x0800a7a0   Section        0  irq.o(i.rt_interrupt_enter)
    i.rt_interrupt_get_nest                  0x0800a7c4   Section        0  irq.o(i.rt_interrupt_get_nest)
    i.rt_interrupt_leave                     0x0800a7dc   Section        0  irq.o(i.rt_interrupt_leave)
    i.rt_ipc_list_resume                     0x0800a800   Section        0  ipc.o(i.rt_ipc_list_resume)
    rt_ipc_list_resume                       0x0800a801   Thumb Code    14  ipc.o(i.rt_ipc_list_resume)
    i.rt_ipc_list_resume_all                 0x0800a80e   Section        0  ipc.o(i.rt_ipc_list_resume_all)
    rt_ipc_list_resume_all                   0x0800a80f   Thumb Code    46  ipc.o(i.rt_ipc_list_resume_all)
    i.rt_ipc_list_suspend                    0x0800a83c   Section        0  ipc.o(i.rt_ipc_list_suspend)
    rt_ipc_list_suspend                      0x0800a83d   Thumb Code    80  ipc.o(i.rt_ipc_list_suspend)
    i.rt_kprintf                             0x0800a88c   Section        0  kservice.o(i.rt_kprintf)
    i.rt_list_insert_after                   0x0800a8dc   Section        0  object.o(i.rt_list_insert_after)
    rt_list_insert_after                     0x0800a8dd   Thumb Code    14  object.o(i.rt_list_insert_after)
    i.rt_list_insert_after                   0x0800a8ea   Section        0  thread.o(i.rt_list_insert_after)
    rt_list_insert_after                     0x0800a8eb   Thumb Code    14  thread.o(i.rt_list_insert_after)
    i.rt_list_insert_after                   0x0800a8f8   Section        0  timer.o(i.rt_list_insert_after)
    rt_list_insert_after                     0x0800a8f9   Thumb Code    14  timer.o(i.rt_list_insert_after)
    i.rt_list_insert_before                  0x0800a906   Section        0  ipc.o(i.rt_list_insert_before)
    rt_list_insert_before                    0x0800a907   Thumb Code    14  ipc.o(i.rt_list_insert_before)
    i.rt_list_isempty                        0x0800a914   Section        0  cmd.o(i.rt_list_isempty)
    rt_list_isempty                          0x0800a915   Thumb Code    14  cmd.o(i.rt_list_isempty)
    i.rt_list_isempty                        0x0800a922   Section        0  ipc.o(i.rt_list_isempty)
    rt_list_isempty                          0x0800a923   Thumb Code    14  ipc.o(i.rt_list_isempty)
    i.rt_list_isempty                        0x0800a930   Section        0  timer.o(i.rt_list_isempty)
    rt_list_isempty                          0x0800a931   Thumb Code    14  timer.o(i.rt_list_isempty)
    i.rt_list_len                            0x0800a93e   Section        0  cmd.o(i.rt_list_len)
    rt_list_len                              0x0800a93f   Thumb Code    18  cmd.o(i.rt_list_len)
    i.rt_list_remove                         0x0800a950   Section        0  object.o(i.rt_list_remove)
    rt_list_remove                           0x0800a951   Thumb Code    18  object.o(i.rt_list_remove)
    i.rt_list_remove                         0x0800a962   Section        0  thread.o(i.rt_list_remove)
    rt_list_remove                           0x0800a963   Thumb Code    18  thread.o(i.rt_list_remove)
    i.rt_list_remove                         0x0800a974   Section        0  timer.o(i.rt_list_remove)
    rt_list_remove                           0x0800a975   Thumb Code    18  timer.o(i.rt_list_remove)
    i.rt_malloc                              0x0800a988   Section        0  mem.o(i.rt_malloc)
    i.rt_mem_setname                         0x0800aab4   Section        0  mem.o(i.rt_mem_setname)
    rt_mem_setname                           0x0800aab5   Thumb Code    36  mem.o(i.rt_mem_setname)
    i.rt_memcpy                              0x0800aad8   Section        0  kservice.o(i.rt_memcpy)
    i.rt_memmove                             0x0800ab22   Section        0  kservice.o(i.rt_memmove)
    i.rt_memset                              0x0800ab50   Section        0  kservice.o(i.rt_memset)
    i.rt_mutex_init                          0x0800ab94   Section        0  ipc.o(i.rt_mutex_init)
    i.rt_mutex_release                       0x0800abbc   Section        0  ipc.o(i.rt_mutex_release)
    i.rt_mutex_take                          0x0800ac74   Section        0  ipc.o(i.rt_mutex_take)
    i.rt_object_allocate                     0x0800ad4c   Section        0  object.o(i.rt_object_allocate)
    i.rt_object_delete                       0x0800ada8   Section        0  object.o(i.rt_object_delete)
    i.rt_object_detach                       0x0800addc   Section        0  object.o(i.rt_object_detach)
    i.rt_object_find                         0x0800ae0c   Section        0  object.o(i.rt_object_find)
    i.rt_object_get_information              0x0800ae54   Section        0  object.o(i.rt_object_get_information)
    i.rt_object_init                         0x0800ae78   Section        0  object.o(i.rt_object_init)
    i.rt_object_is_systemobject              0x0800aed8   Section        0  object.o(i.rt_object_is_systemobject)
    i.rt_pin_get                             0x0800aee8   Section        0  pin.o(i.rt_pin_get)
    i.rt_pin_mode                            0x0800aefc   Section        0  pin.o(i.rt_pin_mode)
    i.rt_pin_read                            0x0800af10   Section        0  pin.o(i.rt_pin_read)
    i.rt_pin_write                           0x0800af20   Section        0  pin.o(i.rt_pin_write)
    i.rt_realloc                             0x0800af34   Section        0  mem.o(i.rt_realloc)
    i.rt_schedule                            0x0800b030   Section        0  scheduler.o(i.rt_schedule)
    i.rt_schedule_insert_thread              0x0800b104   Section        0  scheduler.o(i.rt_schedule_insert_thread)
    i.rt_schedule_remove_thread              0x0800b168   Section        0  scheduler.o(i.rt_schedule_remove_thread)
    i.rt_sem_create                          0x0800b1b4   Section        0  ipc.o(i.rt_sem_create)
    i.rt_sem_delete                          0x0800b1d4   Section        0  ipc.o(i.rt_sem_delete)
    i.rt_sem_detach                          0x0800b1e8   Section        0  ipc.o(i.rt_sem_detach)
    i.rt_sem_init                            0x0800b1fc   Section        0  ipc.o(i.rt_sem_init)
    i.rt_sem_release                         0x0800b220   Section        0  ipc.o(i.rt_sem_release)
    i.rt_sem_take                            0x0800b280   Section        0  ipc.o(i.rt_sem_take)
    i.rt_serial_close                        0x0800b310   Section        0  serial.o(i.rt_serial_close)
    rt_serial_close                          0x0800b311   Thumb Code    90  serial.o(i.rt_serial_close)
    i.rt_serial_control                      0x0800b36a   Section        0  serial.o(i.rt_serial_control)
    rt_serial_control                        0x0800b36b   Thumb Code    96  serial.o(i.rt_serial_control)
    i.rt_serial_init                         0x0800b3ca   Section        0  serial.o(i.rt_serial_init)
    rt_serial_init                           0x0800b3cb   Thumb Code    26  serial.o(i.rt_serial_init)
    i.rt_serial_open                         0x0800b3e4   Section        0  serial.o(i.rt_serial_open)
    rt_serial_open                           0x0800b3e5   Thumb Code   208  serial.o(i.rt_serial_open)
    i.rt_serial_read                         0x0800b4b4   Section        0  serial.o(i.rt_serial_read)
    rt_serial_read                           0x0800b4b5   Thumb Code   118  serial.o(i.rt_serial_read)
    i.rt_serial_write                        0x0800b52a   Section        0  serial.o(i.rt_serial_write)
    rt_serial_write                          0x0800b52b   Thumb Code    64  serial.o(i.rt_serial_write)
    i.rt_set_errno                           0x0800b56c   Section        0  kservice.o(i.rt_set_errno)
    i.rt_show_version                        0x0800b58c   Section        0  kservice.o(i.rt_show_version)
    i.rt_snprintf                            0x0800b58e   Section        0  kservice.o(i.rt_snprintf)
    i.rt_soft_timer_check                    0x0800b5a0   Section        0  timer.o(i.rt_soft_timer_check)
    i.rt_sprintf                             0x0800b654   Section        0  kservice.o(i.rt_sprintf)
    i.rt_strcmp                              0x0800b666   Section        0  kservice.o(i.rt_strcmp)
    i.rt_strdup                              0x0800b67e   Section        0  kservice.o(i.rt_strdup)
    i.rt_strlen                              0x0800b6a2   Section        0  kservice.o(i.rt_strlen)
    i.rt_strncmp                             0x0800b6b2   Section        0  kservice.o(i.rt_strncmp)
    i.rt_strncpy                             0x0800b6d2   Section        0  kservice.o(i.rt_strncpy)
    i.rt_system_heap_init                    0x0800b6f8   Section        0  mem.o(i.rt_system_heap_init)
    i.rt_system_scheduler_init               0x0800b7c4   Section        0  scheduler.o(i.rt_system_scheduler_init)
    i.rt_system_scheduler_start              0x0800b7f8   Section        0  scheduler.o(i.rt_system_scheduler_start)
    i.rt_system_timer_init                   0x0800b820   Section        0  timer.o(i.rt_system_timer_init)
    i.rt_system_timer_thread_init            0x0800b838   Section        0  timer.o(i.rt_system_timer_thread_init)
    i.rt_thread_control                      0x0800b884   Section        0  thread.o(i.rt_thread_control)
    i.rt_thread_create                       0x0800b8fa   Section        0  thread.o(i.rt_thread_create)
    i.rt_thread_delay                        0x0800b942   Section        0  thread.o(i.rt_thread_delay)
    i.rt_thread_delete                       0x0800b948   Section        0  thread.o(i.rt_thread_delete)
    i.rt_thread_detach                       0x0800b994   Section        0  thread.o(i.rt_thread_detach)
    i.rt_thread_exit                         0x0800b9f4   Section        0  thread.o(i.rt_thread_exit)
    i.rt_thread_idle_entry                   0x0800ba4c   Section        0  idle.o(i.rt_thread_idle_entry)
    rt_thread_idle_entry                     0x0800ba4d   Thumb Code    24  idle.o(i.rt_thread_idle_entry)
    i.rt_thread_idle_excute                  0x0800ba68   Section        0  idle.o(i.rt_thread_idle_excute)
    i.rt_thread_idle_init                    0x0800bab0   Section        0  idle.o(i.rt_thread_idle_init)
    i.rt_thread_init                         0x0800bb10   Section        0  thread.o(i.rt_thread_init)
    i.rt_thread_mdelay                       0x0800bb40   Section        0  thread.o(i.rt_thread_mdelay)
    i.rt_thread_resume                       0x0800bb50   Section        0  thread.o(i.rt_thread_resume)
    i.rt_thread_self                         0x0800bb9c   Section        0  thread.o(i.rt_thread_self)
    i.rt_thread_sleep                        0x0800bba8   Section        0  thread.o(i.rt_thread_sleep)
    i.rt_thread_startup                      0x0800bbe8   Section        0  thread.o(i.rt_thread_startup)
    i.rt_thread_suspend                      0x0800bc14   Section        0  thread.o(i.rt_thread_suspend)
    i.rt_thread_timeout                      0x0800bc68   Section        0  thread.o(i.rt_thread_timeout)
    i.rt_thread_timer_entry                  0x0800bc88   Section        0  timer.o(i.rt_thread_timer_entry)
    rt_thread_timer_entry                    0x0800bc89   Thumb Code    50  timer.o(i.rt_thread_timer_entry)
    i.rt_tick_from_millisecond               0x0800bcc0   Section        0  clock.o(i.rt_tick_from_millisecond)
    i.rt_tick_get                            0x0800bcf4   Section        0  clock.o(i.rt_tick_get)
    i.rt_tick_increase                       0x0800bd00   Section        0  clock.o(i.rt_tick_increase)
    i.rt_tick_set                            0x0800bd34   Section        0  clock.o(i.rt_tick_set)
    i.rt_timer_check                         0x0800bd4c   Section        0  timer.o(i.rt_timer_check)
    i.rt_timer_control                       0x0800bdf4   Section        0  timer.o(i.rt_timer_control)
    i.rt_timer_detach                        0x0800be3c   Section        0  timer.o(i.rt_timer_detach)
    i.rt_timer_init                          0x0800be64   Section        0  timer.o(i.rt_timer_init)
    i.rt_timer_list_next_timeout             0x0800be8c   Section        0  timer.o(i.rt_timer_list_next_timeout)
    rt_timer_list_next_timeout               0x0800be8d   Thumb Code    36  timer.o(i.rt_timer_list_next_timeout)
    i.rt_timer_start                         0x0800beb0   Section        0  timer.o(i.rt_timer_start)
    i.rt_timer_stop                          0x0800bf84   Section        0  timer.o(i.rt_timer_stop)
    i.rt_vsnprintf                           0x0800bfc0   Section        0  kservice.o(i.rt_vsnprintf)
    i.rt_vsprintf                            0x0800c224   Section        0  kservice.o(i.rt_vsprintf)
    i.rt_watchdog_close                      0x0800c230   Section        0  watchdog.o(i.rt_watchdog_close)
    rt_watchdog_close                        0x0800c231   Thumb Code    28  watchdog.o(i.rt_watchdog_close)
    i.rt_watchdog_control                    0x0800c270   Section        0  watchdog.o(i.rt_watchdog_control)
    rt_watchdog_control                      0x0800c271   Thumb Code     6  watchdog.o(i.rt_watchdog_control)
    i.rt_watchdog_init                       0x0800c276   Section        0  watchdog.o(i.rt_watchdog_init)
    rt_watchdog_init                         0x0800c277   Thumb Code    14  watchdog.o(i.rt_watchdog_init)
    i.rt_watchdog_open                       0x0800c284   Section        0  watchdog.o(i.rt_watchdog_open)
    rt_watchdog_open                         0x0800c285   Thumb Code     4  watchdog.o(i.rt_watchdog_open)
    i.rti_board_end                          0x0800c288   Section        0  components.o(i.rti_board_end)
    rti_board_end                            0x0800c289   Thumb Code     4  components.o(i.rti_board_end)
    i.rti_board_start                        0x0800c28c   Section        0  components.o(i.rti_board_start)
    rti_board_start                          0x0800c28d   Thumb Code     4  components.o(i.rti_board_start)
    i.rti_end                                0x0800c290   Section        0  components.o(i.rti_end)
    rti_end                                  0x0800c291   Thumb Code     4  components.o(i.rti_end)
    i.rti_start                              0x0800c294   Section        0  components.o(i.rti_start)
    rti_start                                0x0800c295   Thumb Code     4  components.o(i.rti_start)
    i.rtthread_startup                       0x0800c298   Section        0  components.o(i.rtthread_startup)
    i.rym_recv_on_device                     0x0800c2c0   Section        0  ymodem.o(i.rym_recv_on_device)
    i.shell_handle_history                   0x0800c364   Section        0  shell.o(i.shell_handle_history)
    shell_handle_history                     0x0800c365   Thumb Code    32  shell.o(i.shell_handle_history)
    i.shell_push_history                     0x0800c390   Section        0  shell.o(i.shell_push_history)
    shell_push_history                       0x0800c391   Thumb Code   176  shell.o(i.shell_push_history)
    i.show_wait_queue                        0x0800c440   Section        0  cmd.o(i.show_wait_queue)
    show_wait_queue                          0x0800c441   Thumb Code    38  cmd.o(i.show_wait_queue)
    i.skip_atoi                              0x0800c470   Section        0  kservice.o(i.skip_atoi)
    skip_atoi                                0x0800c471   Thumb Code    40  kservice.o(i.skip_atoi)
    i.stat                                   0x0800c498   Section        0  dfs_posix.o(i.stat)
    i.str_common                             0x0800c4ac   Section        0  msh.o(i.str_common)
    str_common                               0x0800c4ad   Thumb Code    26  msh.o(i.str_common)
    i.syscfg_exti_line_config                0x0800c4c8   Section        0  gd32f4xx_syscfg.o(i.syscfg_exti_line_config)
    i.system_clock_200m_8m_hxtal             0x0800c50c   Section        0  system_gd32f4xx.o(i.system_clock_200m_8m_hxtal)
    system_clock_200m_8m_hxtal               0x0800c50d   Thumb Code   158  system_gd32f4xx.o(i.system_clock_200m_8m_hxtal)
    i.systick_clksource_set                  0x0800c5b8   Section        0  gd32f4xx_misc.o(i.systick_clksource_set)
    i.tiny_aes_crypt_cbc                     0x0800c5d0   Section        0  tiny_aes.o(i.tiny_aes_crypt_cbc)
    i.tiny_aes_crypt_ecb                     0x0800c658   Section        0  tiny_aes.o(i.tiny_aes_crypt_ecb)
    i.tiny_aes_setkey_dec                    0x0800cd34   Section        0  tiny_aes.o(i.tiny_aes_setkey_dec)
    i.tiny_aes_setkey_enc                    0x0800ce00   Section        0  tiny_aes.o(i.tiny_aes_setkey_enc)
    i.unlink                                 0x0800cf90   Section        0  dfs_posix.o(i.unlink)
    i.usage_fault_track                      0x0800cfa8   Section        0  cpuport.o(i.usage_fault_track)
    usage_fault_track                        0x0800cfa9   Thumb Code   100  cpuport.o(i.usage_fault_track)
    i.usart_baudrate_set                     0x0800d078   Section        0  gd32f4xx_usart.o(i.usart_baudrate_set)
    i.usart_data_receive                     0x0800d0f8   Section        0  gd32f4xx_usart.o(i.usart_data_receive)
    i.usart_data_transmit                    0x0800d100   Section        0  gd32f4xx_usart.o(i.usart_data_transmit)
    i.usart_enable                           0x0800d108   Section        0  gd32f4xx_usart.o(i.usart_enable)
    i.usart_flag_clear                       0x0800d112   Section        0  gd32f4xx_usart.o(i.usart_flag_clear)
    i.usart_flag_get                         0x0800d126   Section        0  gd32f4xx_usart.o(i.usart_flag_get)
    i.usart_interrupt_disable                0x0800d13c   Section        0  gd32f4xx_usart.o(i.usart_interrupt_disable)
    i.usart_interrupt_enable                 0x0800d150   Section        0  gd32f4xx_usart.o(i.usart_interrupt_enable)
    i.usart_interrupt_flag_get               0x0800d164   Section        0  gd32f4xx_usart.o(i.usart_interrupt_flag_get)
    i.usart_parity_config                    0x0800d194   Section        0  gd32f4xx_usart.o(i.usart_parity_config)
    i.usart_receive_config                   0x0800d1a4   Section        0  gd32f4xx_usart.o(i.usart_receive_config)
    i.usart_stop_bit_set                     0x0800d1b0   Section        0  gd32f4xx_usart.o(i.usart_stop_bit_set)
    i.usart_transmit_config                  0x0800d1c0   Section        0  gd32f4xx_usart.o(i.usart_transmit_config)
    i.usart_word_length_set                  0x0800d1cc   Section        0  gd32f4xx_usart.o(i.usart_word_length_set)
    i.version                                0x0800d1dc   Section        0  cmd.o(i.version)
    i.write                                  0x0800d1e6   Section        0  dfs_posix.o(i.write)
    i.ymodem_on_begin                        0x0800d228   Section        0  ymodem_ota.o(i.ymodem_on_begin)
    ymodem_on_begin                          0x0800d229   Thumb Code   150  ymodem_ota.o(i.ymodem_on_begin)
    i.ymodem_on_data                         0x0800d3d4   Section        0  ymodem_ota.o(i.ymodem_on_data)
    ymodem_on_data                           0x0800d3d5   Thumb Code    58  ymodem_ota.o(i.ymodem_on_data)
    i.ymodem_ota                             0x0800d46c   Section        0  ymodem_ota.o(i.ymodem_ota)
    .constdata                               0x0800d6e4   Section       64  rt_fota.o(.constdata)
    .constdata                               0x0800d724   Section     2332  drv_gpio.o(.constdata)
    pins                                     0x0800d724   Data        2240  drv_gpio.o(.constdata)
    pin_irq_map                              0x0800dfe4   Data          64  drv_gpio.o(.constdata)
    gd32_pin_ops                             0x0800e024   Data          28  drv_gpio.o(.constdata)
    .constdata                               0x0800e040   Section       64  drv_usart.o(.constdata)
    uart_obj                                 0x0800e048   Data          36  drv_usart.o(.constdata)
    gd32_uart_ops                            0x0800e06c   Data          20  drv_usart.o(.constdata)
    .constdata                               0x0800e080   Section       56  drv_flash.o(.constdata)
    .constdata                               0x0800e0b8   Section        9  fal.o(.constdata)
    __FUNCTION__                             0x0800e0b8   Data           9  fal.o(.constdata)
    .constdata                               0x0800e0c4   Section        4  fal_flash.o(.constdata)
    device_table                             0x0800e0c4   Data           4  fal_flash.o(.constdata)
    .constdata                               0x0800e0c8   Section       78  fal_partition.o(.constdata)
    __FUNCTION__                             0x0800e0c8   Data          19  fal_partition.o(.constdata)
    __FUNCTION__                             0x0800e0db   Data          19  fal_partition.o(.constdata)
    __FUNCTION__                             0x0800e0ee   Data          20  fal_partition.o(.constdata)
    __FUNCTION__                             0x0800e102   Data          20  fal_partition.o(.constdata)
    .constdata                               0x0800e118   Section       68  fal_rtt.o(.constdata)
    __FUNCTION__                             0x0800e118   Data          22  fal_rtt.o(.constdata)
    __FUNCTION__                             0x0800e12e   Data          23  fal_rtt.o(.constdata)
    .constdata                               0x0800e15c   Section       12  dfs_fs.o(.constdata)
    .constdata                               0x0800e168   Section       36  devfs.o(.constdata)
    _device_fops                             0x0800e168   Data          36  devfs.o(.constdata)
    .constdata                               0x0800e18c   Section       40  devfs.o(.constdata)
    _device_fs                               0x0800e18c   Data          40  devfs.o(.constdata)
    .constdata                               0x0800e1b4   Section       92  cmd.o(.constdata)
    device_type_str                          0x0800e1b4   Data          92  cmd.o(.constdata)
    .constdata                               0x0800e210   Section      290  kservice.o(.constdata)
    small_digits                             0x0800e310   Data          17  kservice.o(.constdata)
    large_digits                             0x0800e321   Data          17  kservice.o(.constdata)
    .constdata                               0x0800e334   Section       64  quicklz.o(.constdata)
    bitlut                                   0x0800e334   Data          64  quicklz.o(.constdata)
    .constdata                               0x0800e374   Section     8744  tiny_aes.o(.constdata)
    FSb                                      0x0800e374   Data         256  tiny_aes.o(.constdata)
    FT0                                      0x0800e474   Data        1024  tiny_aes.o(.constdata)
    FT1                                      0x0800e874   Data        1024  tiny_aes.o(.constdata)
    FT2                                      0x0800ec74   Data        1024  tiny_aes.o(.constdata)
    FT3                                      0x0800f074   Data        1024  tiny_aes.o(.constdata)
    RSb                                      0x0800f474   Data         256  tiny_aes.o(.constdata)
    RT0                                      0x0800f574   Data        1024  tiny_aes.o(.constdata)
    RT1                                      0x0800f974   Data        1024  tiny_aes.o(.constdata)
    RT2                                      0x0800fd74   Data        1024  tiny_aes.o(.constdata)
    RT3                                      0x08010174   Data        1024  tiny_aes.o(.constdata)
    RCON                                     0x08010574   Data          40  tiny_aes.o(.constdata)
    .constdata                               0x0801059c   Section      129  ctype_o.o(.constdata)
    .constdata                               0x08010620   Section        4  ctype_o.o(.constdata)
    table                                    0x08010620   Data           4  ctype_o.o(.constdata)
    .conststring                             0x08010624   Section      299  rt_fota.o(.conststring)
    .conststring                             0x08010750   Section        6  drv_usart.o(.conststring)
    .conststring                             0x08010758   Section      306  fal_partition.o(.conststring)
    .conststring                             0x0801088c   Section      674  fal_rtt.o(.conststring)
    .conststring                             0x08010b30   Section      239  fastlz_sample.o(.conststring)
    .conststring                             0x08010c20   Section       11  dfs_fs.o(.conststring)
    .conststring                             0x08010c2c   Section        6  devfs.o(.conststring)
    .conststring                             0x08010c34   Section      393  cmd.o(.conststring)
    .conststring                             0x08010dc0   Section        9  ymodem_ota.o(.conststring)
    .rodata.name                             0x08010dc9   Section        8  pin.o(.rodata.name)
    .rodata.name                             0x08010dd1   Section       22  pin.o(.rodata.name)
    .rodata.name                             0x08010de7   Section        9  pin.o(.rodata.name)
    .rodata.name                             0x08010df0   Section       28  pin.o(.rodata.name)
    .rodata.name                             0x08010e0c   Section        8  pin.o(.rodata.name)
    .rodata.name                             0x08010e14   Section       30  pin.o(.rodata.name)
    .rodata.name                             0x08010e32   Section        7  pin.o(.rodata.name)
    .rodata.name                             0x08010e39   Section       33  pin.o(.rodata.name)
    .rodata.name                             0x08010e5a   Section       11  rt_fota.o(.rodata.name)
    .rodata.name                             0x08010e65   Section       28  rt_fota.o(.rodata.name)
    .rodata.name                             0x08010e81   Section       10  fal_rtt.o(.rodata.name)
    .rodata.name                             0x08010e8b   Section       39  fal_rtt.o(.rodata.name)
    .rodata.name                             0x08010eb2   Section       18  fastlz_sample.o(.rodata.name)
    .rodata.name                             0x08010ec4   Section       36  fastlz_sample.o(.rodata.name)
    .rodata.name                             0x08010ee8   Section       14  dfs.o(.rodata.name)
    .rodata.name                             0x08010ef6   Section       21  dfs.o(.rodata.name)
    .rodata.name                             0x08010f0b   Section        3  dfs_file.o(.rodata.name)
    .rodata.name                             0x08010f0e   Section       24  dfs_file.o(.rodata.name)
    .rodata.name                             0x08010f26   Section        3  dfs_file.o(.rodata.name)
    .rodata.name                             0x08010f29   Section       28  dfs_file.o(.rodata.name)
    .rodata.name                             0x08010f45   Section        4  dfs_file.o(.rodata.name)
    .rodata.name                             0x08010f49   Section       11  dfs_file.o(.rodata.name)
    .rodata.name                             0x08010f54   Section        5  dfs_file.o(.rodata.name)
    .rodata.name                             0x08010f59   Section       17  dfs_file.o(.rodata.name)
    .rodata.name                             0x08010f6a   Section        5  dfs_fs.o(.rodata.name)
    .rodata.name                             0x08010f6f   Section       19  dfs_fs.o(.rodata.name)
    .rodata.name                             0x08010f82   Section        3  dfs_fs.o(.rodata.name)
    .rodata.name                             0x08010f85   Section       14  dfs_fs.o(.rodata.name)
    .rodata.name                             0x08010f93   Section        6  dfs_posix.o(.rodata.name)
    .rodata.name                             0x08010f99   Section       19  dfs_posix.o(.rodata.name)
    .rodata.name                             0x08010fac   Section        3  dfs_posix.o(.rodata.name)
    .rodata.name                             0x08010faf   Section       33  dfs_posix.o(.rodata.name)
    .rodata.name                             0x08010fd0   Section        6  cmd.o(.rodata.name)
    .rodata.name                             0x08010fd6   Section       16  cmd.o(.rodata.name)
    .rodata.name                             0x08010fe6   Section        6  cmd.o(.rodata.name)
    .rodata.name                             0x08010fec   Section       26  cmd.o(.rodata.name)
    .rodata.name                             0x08011006   Section       12  cmd.o(.rodata.name)
    .rodata.name                             0x08011012   Section       26  cmd.o(.rodata.name)
    .rodata.name                             0x0801102c   Section        8  cmd.o(.rodata.name)
    .rodata.name                             0x08011034   Section       35  cmd.o(.rodata.name)
    .rodata.name                             0x08011057   Section       14  cmd.o(.rodata.name)
    .rodata.name                             0x08011065   Section       35  cmd.o(.rodata.name)
    .rodata.name                             0x08011088   Section       12  cmd.o(.rodata.name)
    .rodata.name                             0x08011094   Section       12  cmd.o(.rodata.name)
    .rodata.name                             0x080110a0   Section       18  cmd.o(.rodata.name)
    .rodata.name                             0x080110b2   Section       12  cmd.o(.rodata.name)
    .rodata.name                             0x080110be   Section        9  cmd.o(.rodata.name)
    .rodata.name                             0x080110c7   Section       25  cmd.o(.rodata.name)
    .rodata.name                             0x080110e0   Section       15  cmd.o(.rodata.name)
    .rodata.name                             0x080110ef   Section       25  cmd.o(.rodata.name)
    .rodata.name                             0x08011108   Section       11  cmd.o(.rodata.name)
    .rodata.name                             0x08011113   Section       21  cmd.o(.rodata.name)
    .rodata.name                             0x08011128   Section       17  cmd.o(.rodata.name)
    .rodata.name                             0x08011139   Section       21  cmd.o(.rodata.name)
    .rodata.name                             0x0801114e   Section       11  cmd.o(.rodata.name)
    .rodata.name                             0x08011159   Section       21  cmd.o(.rodata.name)
    .rodata.name                             0x0801116e   Section       17  cmd.o(.rodata.name)
    .rodata.name                             0x0801117f   Section       21  cmd.o(.rodata.name)
    .rodata.name                             0x08011194   Section       13  cmd.o(.rodata.name)
    .rodata.name                             0x080111a1   Section       24  cmd.o(.rodata.name)
    .rodata.name                             0x080111b9   Section       19  cmd.o(.rodata.name)
    .rodata.name                             0x080111cc   Section       24  cmd.o(.rodata.name)
    .rodata.name                             0x080111e4   Section       14  cmd.o(.rodata.name)
    .rodata.name                             0x080111f2   Section       29  cmd.o(.rodata.name)
    .rodata.name                             0x0801120f   Section       20  cmd.o(.rodata.name)
    .rodata.name                             0x08011223   Section       29  cmd.o(.rodata.name)
    .rodata.name                             0x08011240   Section       13  cmd.o(.rodata.name)
    .rodata.name                             0x0801124d   Section       27  cmd.o(.rodata.name)
    .rodata.name                             0x08011268   Section       19  cmd.o(.rodata.name)
    .rodata.name                             0x0801127b   Section       27  cmd.o(.rodata.name)
    .rodata.name                             0x08011296   Section       13  cmd.o(.rodata.name)
    .rodata.name                             0x080112a3   Section       27  cmd.o(.rodata.name)
    .rodata.name                             0x080112be   Section       19  cmd.o(.rodata.name)
    .rodata.name                             0x080112d1   Section       27  cmd.o(.rodata.name)
    .rodata.name                             0x080112ec   Section       11  cmd.o(.rodata.name)
    .rodata.name                             0x080112f7   Section       21  cmd.o(.rodata.name)
    .rodata.name                             0x0801130c   Section       17  cmd.o(.rodata.name)
    .rodata.name                             0x0801131d   Section       21  cmd.o(.rodata.name)
    .rodata.name                             0x08011332   Section       12  cmd.o(.rodata.name)
    .rodata.name                             0x0801133e   Section       22  cmd.o(.rodata.name)
    .rodata.name                             0x08011354   Section       18  cmd.o(.rodata.name)
    .rodata.name                             0x08011366   Section       22  cmd.o(.rodata.name)
    .rodata.name                             0x0801137c   Section        5  cmd.o(.rodata.name)
    .rodata.name                             0x08011381   Section       26  cmd.o(.rodata.name)
    .rodata.name                             0x0801139b   Section       11  msh.o(.rodata.name)
    .rodata.name                             0x080113a6   Section       22  msh.o(.rodata.name)
    .rodata.name                             0x080113bc   Section        9  msh.o(.rodata.name)
    .rodata.name                             0x080113c5   Section       28  msh.o(.rodata.name)
    .rodata.name                             0x080113e1   Section       11  msh.o(.rodata.name)
    .rodata.name                             0x080113ec   Section       37  msh.o(.rodata.name)
    .rodata.name                             0x08011411   Section        9  msh_file.o(.rodata.name)
    .rodata.name                             0x0801141a   Section       34  msh_file.o(.rodata.name)
    .rodata.name                             0x0801143c   Section        9  msh_file.o(.rodata.name)
    .rodata.name                             0x08011445   Section       21  msh_file.o(.rodata.name)
    .rodata.name                             0x0801145a   Section        9  msh_file.o(.rodata.name)
    .rodata.name                             0x08011463   Section       23  msh_file.o(.rodata.name)
    .rodata.name                             0x0801147a   Section       10  msh_file.o(.rodata.name)
    .rodata.name                             0x08011484   Section       20  msh_file.o(.rodata.name)
    .rodata.name                             0x08011498   Section        9  msh_file.o(.rodata.name)
    .rodata.name                             0x080114a1   Section       28  msh_file.o(.rodata.name)
    .rodata.name                             0x080114bd   Section        9  msh_file.o(.rodata.name)
    .rodata.name                             0x080114c6   Section       36  msh_file.o(.rodata.name)
    .rodata.name                             0x080114ea   Section       10  msh_file.o(.rodata.name)
    .rodata.name                             0x080114f4   Section       49  msh_file.o(.rodata.name)
    .rodata.name                             0x08011525   Section       12  msh_file.o(.rodata.name)
    .rodata.name                             0x08011531   Section       22  msh_file.o(.rodata.name)
    .rodata.name                             0x08011547   Section       11  msh_file.o(.rodata.name)
    .rodata.name                             0x08011552   Section       29  msh_file.o(.rodata.name)
    .rodata.name                             0x0801156f   Section        9  msh_file.o(.rodata.name)
    .rodata.name                             0x08011578   Section       10  msh_file.o(.rodata.name)
    .rodata.name                             0x08011582   Section       11  msh_file.o(.rodata.name)
    .rodata.name                             0x0801158d   Section       20  msh_file.o(.rodata.name)
    .rodata.name                             0x080115a1   Section        9  mem.o(.rodata.name)
    .rodata.name                             0x080115aa   Section       30  mem.o(.rodata.name)
    .rodata.name                             0x080115c8   Section       15  mem.o(.rodata.name)
    .rodata.name                             0x080115d7   Section       18  mem.o(.rodata.name)
    .rodata.name                             0x080115e9   Section       15  mem.o(.rodata.name)
    .rodata.name                             0x080115f8   Section       30  mem.o(.rodata.name)
    .rodata.name                             0x08011616   Section       13  ymodem_ota.o(.rodata.name)
    .rodata.name                             0x08011623   Section       37  ymodem_ota.o(.rodata.name)
    .rti_fn.0                                0x08011648   Section        4  components.o(.rti_fn.0)
    __tagsym$$used                           0x08011648   Number         0  components.o(.rti_fn.0)
    .rti_fn.0.end                            0x0801164c   Section        4  components.o(.rti_fn.0.end)
    __tagsym$$used                           0x0801164c   Number         0  components.o(.rti_fn.0.end)
    .rti_fn.1.end                            0x08011650   Section        4  components.o(.rti_fn.1.end)
    __tagsym$$used                           0x08011650   Number         0  components.o(.rti_fn.1.end)
    .rti_fn.2                                0x08011654   Section        4  rt_fota_crc.o(.rti_fn.2)
    __tagsym$$used                           0x08011654   Number         0  rt_fota_crc.o(.rti_fn.2)
    .rti_fn.2                                0x08011658   Section        4  drv_wdt.o(.rti_fn.2)
    __tagsym$$used                           0x08011658   Number         0  drv_wdt.o(.rti_fn.2)
    .rti_fn.2                                0x0801165c   Section        4  dfs.o(.rti_fn.2)
    __tagsym$$used                           0x0801165c   Number         0  dfs.o(.rti_fn.2)
    .rti_fn.6                                0x08011660   Section        4  shell.o(.rti_fn.6)
    __tagsym$$used                           0x08011660   Number         0  shell.o(.rti_fn.6)
    .rti_fn.6.end                            0x08011664   Section        4  components.o(.rti_fn.6.end)
    __tagsym$$used                           0x08011664   Number         0  components.o(.rti_fn.6.end)
    FSymTab                                  0x08011668   Section       48  pin.o(FSymTab)
    __tagsym$$used                           0x08011668   Number         0  pin.o(FSymTab)
    __tagsym$$used                           0x08011674   Number         0  pin.o(FSymTab)
    __tagsym$$used                           0x08011680   Number         0  pin.o(FSymTab)
    __tagsym$$used                           0x0801168c   Number         0  pin.o(FSymTab)
    FSymTab                                  0x08011698   Section       12  rt_fota.o(FSymTab)
    __tagsym$$used                           0x08011698   Number         0  rt_fota.o(FSymTab)
    FSymTab                                  0x080116a4   Section       12  fal_rtt.o(FSymTab)
    __tagsym$$used                           0x080116a4   Number         0  fal_rtt.o(FSymTab)
    FSymTab                                  0x080116b0   Section       12  fastlz_sample.o(FSymTab)
    __tagsym$$used                           0x080116b0   Number         0  fastlz_sample.o(FSymTab)
    FSymTab                                  0x080116bc   Section       12  dfs.o(FSymTab)
    __tagsym$$used                           0x080116bc   Number         0  dfs.o(FSymTab)
    FSymTab                                  0x080116c8   Section       48  dfs_file.o(FSymTab)
    __tagsym$$used                           0x080116c8   Number         0  dfs_file.o(FSymTab)
    __tagsym$$used                           0x080116d4   Number         0  dfs_file.o(FSymTab)
    __tagsym$$used                           0x080116e0   Number         0  dfs_file.o(FSymTab)
    __tagsym$$used                           0x080116ec   Number         0  dfs_file.o(FSymTab)
    FSymTab                                  0x080116f8   Section       24  dfs_fs.o(FSymTab)
    __tagsym$$used                           0x080116f8   Number         0  dfs_fs.o(FSymTab)
    __tagsym$$used                           0x08011704   Number         0  dfs_fs.o(FSymTab)
    FSymTab                                  0x08011710   Section       24  dfs_posix.o(FSymTab)
    __tagsym$$used                           0x08011710   Number         0  dfs_posix.o(FSymTab)
    __tagsym$$used                           0x0801171c   Number         0  dfs_posix.o(FSymTab)
    FSymTab                                  0x08011728   Section      312  cmd.o(FSymTab)
    __tagsym$$used                           0x08011728   Number         0  cmd.o(FSymTab)
    __tagsym$$used                           0x08011734   Number         0  cmd.o(FSymTab)
    __tagsym$$used                           0x08011740   Number         0  cmd.o(FSymTab)
    __tagsym$$used                           0x0801174c   Number         0  cmd.o(FSymTab)
    __tagsym$$used                           0x08011758   Number         0  cmd.o(FSymTab)
    __tagsym$$used                           0x08011764   Number         0  cmd.o(FSymTab)
    __tagsym$$used                           0x08011770   Number         0  cmd.o(FSymTab)
    __tagsym$$used                           0x0801177c   Number         0  cmd.o(FSymTab)
    __tagsym$$used                           0x08011788   Number         0  cmd.o(FSymTab)
    __tagsym$$used                           0x08011794   Number         0  cmd.o(FSymTab)
    __tagsym$$used                           0x080117a0   Number         0  cmd.o(FSymTab)
    __tagsym$$used                           0x080117ac   Number         0  cmd.o(FSymTab)
    __tagsym$$used                           0x080117b8   Number         0  cmd.o(FSymTab)
    __tagsym$$used                           0x080117c4   Number         0  cmd.o(FSymTab)
    __tagsym$$used                           0x080117d0   Number         0  cmd.o(FSymTab)
    __tagsym$$used                           0x080117dc   Number         0  cmd.o(FSymTab)
    __tagsym$$used                           0x080117e8   Number         0  cmd.o(FSymTab)
    __tagsym$$used                           0x080117f4   Number         0  cmd.o(FSymTab)
    __tagsym$$used                           0x08011800   Number         0  cmd.o(FSymTab)
    __tagsym$$used                           0x0801180c   Number         0  cmd.o(FSymTab)
    __tagsym$$used                           0x08011818   Number         0  cmd.o(FSymTab)
    __tagsym$$used                           0x08011824   Number         0  cmd.o(FSymTab)
    __tagsym$$used                           0x08011830   Number         0  cmd.o(FSymTab)
    __tagsym$$used                           0x0801183c   Number         0  cmd.o(FSymTab)
    __tagsym$$used                           0x08011848   Number         0  cmd.o(FSymTab)
    __tagsym$$used                           0x08011854   Number         0  cmd.o(FSymTab)
    FSymTab                                  0x08011860   Section       36  msh.o(FSymTab)
    __tagsym$$used                           0x08011860   Number         0  msh.o(FSymTab)
    __tagsym$$used                           0x0801186c   Number         0  msh.o(FSymTab)
    __tagsym$$used                           0x08011878   Number         0  msh.o(FSymTab)
    FSymTab                                  0x08011884   Section      132  msh_file.o(FSymTab)
    __tagsym$$used                           0x08011884   Number         0  msh_file.o(FSymTab)
    __tagsym$$used                           0x08011890   Number         0  msh_file.o(FSymTab)
    __tagsym$$used                           0x0801189c   Number         0  msh_file.o(FSymTab)
    __tagsym$$used                           0x080118a8   Number         0  msh_file.o(FSymTab)
    __tagsym$$used                           0x080118b4   Number         0  msh_file.o(FSymTab)
    __tagsym$$used                           0x080118c0   Number         0  msh_file.o(FSymTab)
    __tagsym$$used                           0x080118cc   Number         0  msh_file.o(FSymTab)
    __tagsym$$used                           0x080118d8   Number         0  msh_file.o(FSymTab)
    __tagsym$$used                           0x080118e4   Number         0  msh_file.o(FSymTab)
    __tagsym$$used                           0x080118f0   Number         0  msh_file.o(FSymTab)
    __tagsym$$used                           0x080118fc   Number         0  msh_file.o(FSymTab)
    FSymTab                                  0x08011908   Section       36  mem.o(FSymTab)
    __tagsym$$used                           0x08011908   Number         0  mem.o(FSymTab)
    __tagsym$$used                           0x08011914   Number         0  mem.o(FSymTab)
    __tagsym$$used                           0x08011920   Number         0  mem.o(FSymTab)
    FSymTab                                  0x0801192c   Section       12  ymodem_ota.o(FSymTab)
    __tagsym$$used                           0x0801192c   Number         0  ymodem_ota.o(FSymTab)
    FalPartTable                             0x08011938   Section      384  fal_partition.o(FalPartTable)
    __tagsym$$used                           0x08011938   Number         0  fal_partition.o(FalPartTable)
    partition_table_def                      0x08011938   Data         384  fal_partition.o(FalPartTable)
    .data                                    0x20000000   Section        4  cpuport.o(.data)
    rt_exception_hook                        0x20000000   Data           4  cpuport.o(.data)
    .data                                    0x20000004   Section        4  cpuport.o(.data)
    .data                                    0x20000008   Section        4  cpuport.o(.data)
    .data                                    0x2000000c   Section        4  cpuport.o(.data)
    .data                                    0x20000010   Section       36  rt_fota.o(.data)
    signal_led                               0x20000010   Data           4  rt_fota.o(.data)
    shell_sem                                0x20000020   Data           4  rt_fota.o(.data)
    shell_dev                                0x20000024   Data           4  rt_fota.o(.data)
    app_func                                 0x20000028   Data           4  rt_fota.o(.data)
    signal_led_mem_op                        0x2000002c   Data           8  rt_fota.o(.data)
    .data                                    0x20000034   Section      192  drv_gpio.o(.data)
    .data                                    0x200000f4   Section        8  drv_wdt.o(.data)
    g_wdt_ops                                0x200000f4   Data           8  drv_wdt.o(.data)
    .data                                    0x200000fc   Section        1  fal.o(.data)
    init_ok                                  0x200000fc   Data           1  fal.o(.data)
    .data                                    0x200000fd   Section        1  fal_flash.o(.data)
    init_ok                                  0x200000fd   Data           1  fal_flash.o(.data)
    .data                                    0x20000100   Section       12  fal_partition.o(.data)
    init_ok                                  0x20000100   Data           1  fal_partition.o(.data)
    partition_table                          0x20000104   Data           4  fal_partition.o(.data)
    partition_table_len                      0x20000108   Data           4  fal_partition.o(.data)
    .data                                    0x2000010c   Section        8  fal_rtt.o(.data)
    flash_dev                                0x2000010c   Data           4  fal_rtt.o(.data)
    part_dev                                 0x20000110   Data           4  fal_rtt.o(.data)
    .data                                    0x20000114   Section      276  dfs.o(.data)
    init_ok                                  0x20000114   Data           4  dfs.o(.data)
    _fdtab                                   0x20000120   Data           8  dfs.o(.data)
    .data                                    0x20000228   Section       24  shell.o(.data)
    finsh_prompt_custom                      0x20000238   Data           4  shell.o(.data)
    .data                                    0x20000240   Section        4  clock.o(.data)
    rt_tick                                  0x20000240   Data           4  clock.o(.data)
    .data                                    0x20000244   Section       12  irq.o(.data)
    rt_interrupt_enter_hook                  0x20000248   Data           4  irq.o(.data)
    rt_interrupt_leave_hook                  0x2000024c   Data           4  irq.o(.data)
    .data                                    0x20000250   Section        8  kservice.o(.data)
    _console_device                          0x20000250   Data           4  kservice.o(.data)
    __rt_errno                               0x20000254   Data           4  kservice.o(.data)
    .data                                    0x20000258   Section       32  mem.o(.data)
    rt_malloc_hook                           0x20000258   Data           4  mem.o(.data)
    rt_free_hook                             0x2000025c   Data           4  mem.o(.data)
    heap_ptr                                 0x20000260   Data           4  mem.o(.data)
    heap_end                                 0x20000264   Data           4  mem.o(.data)
    lfree                                    0x20000268   Data           4  mem.o(.data)
    mem_size_aligned                         0x2000026c   Data           4  mem.o(.data)
    used_mem                                 0x20000270   Data           4  mem.o(.data)
    max_mem                                  0x20000274   Data           4  mem.o(.data)
    .data                                    0x20000278   Section      180  object.o(.data)
    rt_object_attach_hook                    0x20000278   Data           4  object.o(.data)
    rt_object_detach_hook                    0x2000027c   Data           4  object.o(.data)
    rt_object_container                      0x2000028c   Data         160  object.o(.data)
    .data                                    0x2000032c   Section       24  scheduler.o(.data)
    rt_scheduler_lock_nest                   0x2000032e   Data           2  scheduler.o(.data)
    rt_scheduler_hook                        0x20000338   Data           4  scheduler.o(.data)
    .data                                    0x20000344   Section       12  thread.o(.data)
    rt_thread_suspend_hook                   0x20000344   Data           4  thread.o(.data)
    rt_thread_resume_hook                    0x20000348   Data           4  thread.o(.data)
    rt_thread_inited_hook                    0x2000034c   Data           4  thread.o(.data)
    .data                                    0x20000350   Section       32  timer.o(.data)
    soft_timer_status                        0x20000350   Data           1  timer.o(.data)
    random_nr                                0x20000354   Data           4  timer.o(.data)
    rt_timer_enter_hook                      0x20000358   Data           4  timer.o(.data)
    rt_timer_exit_hook                       0x2000035c   Data           4  timer.o(.data)
    rt_timer_list                            0x20000360   Data           8  timer.o(.data)
    rt_soft_timer_list                       0x20000368   Data           8  timer.o(.data)
    .data                                    0x20000370   Section        4  system_gd32f4xx.o(.data)
    .data                                    0x20000374   Section       16  ymodem_ota.o(.data)
    recv_partition                           0x20000374   Data           4  ymodem_ota.o(.data)
    dl_part                                  0x20000378   Data           4  ymodem_ota.o(.data)
    update_file_total_size                   0x2000037c   Data           4  ymodem_ota.o(.data)
    update_file_cur_size                     0x20000380   Data           4  ymodem_ota.o(.data)
    .data                                    0x20000384   Section       12  signal_led.o(.data)
    first_handle                             0x20000384   Data           4  signal_led.o(.data)
    led_mem_operation                        0x20000388   Data           8  signal_led.o(.data)
    .data                                    0x20000390   Section        4  ymodem.o(.data)
    _rym_the_ctx                             0x20000390   Data           4  ymodem.o(.data)
    .data                                    0x20000394   Section        4  stdout.o(.data)
    .data                                    0x20000398   Section        4  mvars.o(.data)
    .data                                    0x2000039c   Section        4  mvars.o(.data)
    .data                                    0x200003a0   Section        4  errno.o(.data)
    _errno                                   0x200003a0   Data           4  errno.o(.data)
    .bss                                     0x200003a4   Section       68  pin.o(.bss)
    _hw_pin                                  0x200003a4   Data          68  pin.o(.bss)
    .bss                                     0x200003e8   Section       96  rt_fota.o(.bss)
    fota_part_head                           0x200003e8   Data          96  rt_fota.o(.bss)
    .bss                                     0x20000448   Section     1024  rt_fota_crc.o(.bss)
    crc_tab                                  0x20000448   Data        1024  rt_fota_crc.o(.bss)
    .bss                                     0x20000848   Section       84  drv_usart.o(.bss)
    .bss                                     0x2000089c   Section       80  drv_wdt.o(.bss)
    g_wdt_dev                                0x2000089c   Data          80  drv_wdt.o(.bss)
    .bss                                     0x200008ec   Section       68  dfs.o(.bss)
    fslock                                   0x2000090c   Data          36  dfs.o(.bss)
    .bss                                     0x20000930   Section      296  dfs_file.o(.bss)
    fd                                       0x20000930   Data          36  dfs_file.o(.bss)
    dirent                                   0x20000954   Data         260  dfs_file.o(.bss)
    .bss                                     0x20000a58   Section      513  shell.o(.bss)
    finsh_prompt                             0x20000a58   Data         513  shell.o(.bss)
    .bss                                     0x20000c5c   Section     1168  idle.o(.bss)
    idle                                     0x20000c5c   Data         128  idle.o(.bss)
    rt_thread_stack                          0x20000cdc   Data        1024  idle.o(.bss)
    idle_hook_list                           0x200010dc   Data          16  idle.o(.bss)
    .bss                                     0x200010ec   Section      512  kservice.o(.bss)
    rt_log_buf                               0x200010ec   Data         512  kservice.o(.bss)
    .bss                                     0x200012ec   Section       32  mem.o(.bss)
    heap_sem                                 0x200012ec   Data          32  mem.o(.bss)
    .bss                                     0x2000130c   Section       64  scheduler.o(.bss)
    .bss                                     0x2000134c   Section     1152  timer.o(.bss)
    timer_thread                             0x2000134c   Data         128  timer.o(.bss)
    timer_thread_stack                       0x200013cc   Data        1024  timer.o(.bss)
    HEAP                                     0x200017d0   Section     1024  startup_gd32f4xx.o(HEAP)
    STACK                                    0x20001bd0   Section     1024  startup_gd32f4xx.o(STACK)

    Global Symbols

    Symbol Name                              Value     Ov Type        Size  Object(Section)

    BuildAttributes$$THM_ISAv4$E$P$D$K$B$S$7EM$VFPi3$EXTD16$VFPS$VFMA$PE$A:L22UL41UL21$X:L11$S22US41US21$IEEE1$IW$USESV6$~STKCKD$USESV7$~SHL$OSPACE$ROPI$EBA8$MICROLIB$REQ8$PRES8$EABIv2 0x00000000   Number         0  anon$$obj.o ABSOLUTE
    __ARM_use_no_argv                        0x00000000   Number         0  main.o ABSOLUTE
    _printf_a                                0x00000000   Number         0  stubs.o ABSOLUTE
    _printf_c                                0x00000000   Number         0  stubs.o ABSOLUTE
    _printf_charcount                        0x00000000   Number         0  stubs.o ABSOLUTE
    _printf_d                                0x00000000   Number         0  stubs.o ABSOLUTE
    _printf_e                                0x00000000   Number         0  stubs.o ABSOLUTE
    _printf_f                                0x00000000   Number         0  stubs.o ABSOLUTE
    _printf_flags                            0x00000000   Number         0  stubs.o ABSOLUTE
    _printf_fp_dec                           0x00000000   Number         0  stubs.o ABSOLUTE
    _printf_fp_hex                           0x00000000   Number         0  stubs.o ABSOLUTE
    _printf_g                                0x00000000   Number         0  stubs.o ABSOLUTE
    _printf_i                                0x00000000   Number         0  stubs.o ABSOLUTE
    _printf_int_dec                          0x00000000   Number         0  stubs.o ABSOLUTE
    _printf_l                                0x00000000   Number         0  stubs.o ABSOLUTE
    _printf_lc                               0x00000000   Number         0  stubs.o ABSOLUTE
    _printf_ll                               0x00000000   Number         0  stubs.o ABSOLUTE
    _printf_lld                              0x00000000   Number         0  stubs.o ABSOLUTE
    _printf_lli                              0x00000000   Number         0  stubs.o ABSOLUTE
    _printf_llo                              0x00000000   Number         0  stubs.o ABSOLUTE
    _printf_llu                              0x00000000   Number         0  stubs.o ABSOLUTE
    _printf_llx                              0x00000000   Number         0  stubs.o ABSOLUTE
    _printf_longlong_dec                     0x00000000   Number         0  stubs.o ABSOLUTE
    _printf_longlong_hex                     0x00000000   Number         0  stubs.o ABSOLUTE
    _printf_longlong_oct                     0x00000000   Number         0  stubs.o ABSOLUTE
    _printf_ls                               0x00000000   Number         0  stubs.o ABSOLUTE
    _printf_mbtowc                           0x00000000   Number         0  stubs.o ABSOLUTE
    _printf_n                                0x00000000   Number         0  stubs.o ABSOLUTE
    _printf_o                                0x00000000   Number         0  stubs.o ABSOLUTE
    _printf_p                                0x00000000   Number         0  stubs.o ABSOLUTE
    _printf_percent                          0x00000000   Number         0  stubs.o ABSOLUTE
    _printf_pre_padding                      0x00000000   Number         0  stubs.o ABSOLUTE
    _printf_return_value                     0x00000000   Number         0  stubs.o ABSOLUTE
    _printf_s                                0x00000000   Number         0  stubs.o ABSOLUTE
    _printf_sizespec                         0x00000000   Number         0  stubs.o ABSOLUTE
    _printf_str                              0x00000000   Number         0  stubs.o ABSOLUTE
    _printf_truncate_signed                  0x00000000   Number         0  stubs.o ABSOLUTE
    _printf_truncate_unsigned                0x00000000   Number         0  stubs.o ABSOLUTE
    _printf_u                                0x00000000   Number         0  stubs.o ABSOLUTE
    _printf_wc                               0x00000000   Number         0  stubs.o ABSOLUTE
    _printf_wctomb                           0x00000000   Number         0  stubs.o ABSOLUTE
    _printf_widthprec                        0x00000000   Number         0  stubs.o ABSOLUTE
    _printf_x                                0x00000000   Number         0  stubs.o ABSOLUTE
    __cpp_initialize__aeabi_                  - Undefined Weak Reference
    __cxa_finalize                            - Undefined Weak Reference
    _clock_init                               - Undefined Weak Reference
    _microlib_exit                            - Undefined Weak Reference
    __Vectors_Size                           0x000001a8   Number         0  startup_gd32f4xx.o ABSOLUTE
    __Vectors                                0x08000000   Data           4  startup_gd32f4xx.o(RESET)
    __Vectors_End                            0x080001a8   Data           0  startup_gd32f4xx.o(RESET)
    __main                                   0x080001a9   Thumb Code     0  entry.o(.ARM.Collect$$$$00000000)
    _main_stk                                0x080001a9   Thumb Code     0  entry2.o(.ARM.Collect$$$$00000001)
    _main_scatterload                        0x080001ad   Thumb Code     0  entry5.o(.ARM.Collect$$$$00000004)
    __main_after_scatterload                 0x080001b1   Thumb Code     0  entry5.o(.ARM.Collect$$$$00000004)
    _main_clock                              0x080001b1   Thumb Code     0  entry7b.o(.ARM.Collect$$$$00000008)
    _main_cpp_init                           0x080001b1   Thumb Code     0  entry8b.o(.ARM.Collect$$$$0000000A)
    _main_init                               0x080001b1   Thumb Code     0  entry9a.o(.ARM.Collect$$$$0000000B)
    __rt_final_cpp                           0x080001b9   Thumb Code     0  entry10a.o(.ARM.Collect$$$$0000000D)
    __rt_final_exit                          0x080001b9   Thumb Code     0  entry11a.o(.ARM.Collect$$$$0000000F)
    rt_hw_interrupt_disable                  0x080001bd   Thumb Code     8  context_rvds.o(.text)
    rt_hw_interrupt_enable                   0x080001c5   Thumb Code     6  context_rvds.o(.text)
    rt_hw_context_switch                     0x080001cb   Thumb Code    32  context_rvds.o(.text)
    rt_hw_context_switch_interrupt           0x080001cb   Thumb Code     0  context_rvds.o(.text)
    PendSV_Handler                           0x080001eb   Thumb Code   108  context_rvds.o(.text)
    rt_hw_context_switch_to                  0x08000257   Thumb Code    68  context_rvds.o(.text)
    rt_hw_interrupt_thread_switch            0x0800029b   Thumb Code     2  context_rvds.o(.text)
    HardFault_Handler                        0x0800029d   Thumb Code    56  context_rvds.o(.text)
    Reset_Handler                            0x080002f1   Thumb Code     8  startup_gd32f4xx.o(.text)
    NMI_Handler                              0x080002f9   Thumb Code     2  startup_gd32f4xx.o(.text)
    MemManage_Handler                        0x080002fd   Thumb Code     2  startup_gd32f4xx.o(.text)
    BusFault_Handler                         0x080002ff   Thumb Code     2  startup_gd32f4xx.o(.text)
    UsageFault_Handler                       0x08000301   Thumb Code     2  startup_gd32f4xx.o(.text)
    SVC_Handler                              0x08000303   Thumb Code     2  startup_gd32f4xx.o(.text)
    DebugMon_Handler                         0x08000305   Thumb Code     2  startup_gd32f4xx.o(.text)
    ADC_IRQHandler                           0x0800030b   Thumb Code     0  startup_gd32f4xx.o(.text)
    CAN0_EWMC_IRQHandler                     0x0800030b   Thumb Code     0  startup_gd32f4xx.o(.text)
    CAN0_RX0_IRQHandler                      0x0800030b   Thumb Code     0  startup_gd32f4xx.o(.text)
    CAN0_RX1_IRQHandler                      0x0800030b   Thumb Code     0  startup_gd32f4xx.o(.text)
    CAN0_TX_IRQHandler                       0x0800030b   Thumb Code     0  startup_gd32f4xx.o(.text)
    CAN1_EWMC_IRQHandler                     0x0800030b   Thumb Code     0  startup_gd32f4xx.o(.text)
    CAN1_RX0_IRQHandler                      0x0800030b   Thumb Code     0  startup_gd32f4xx.o(.text)
    CAN1_RX1_IRQHandler                      0x0800030b   Thumb Code     0  startup_gd32f4xx.o(.text)
    CAN1_TX_IRQHandler                       0x0800030b   Thumb Code     0  startup_gd32f4xx.o(.text)
    DCI_IRQHandler                           0x0800030b   Thumb Code     0  startup_gd32f4xx.o(.text)
    DMA0_Channel0_IRQHandler                 0x0800030b   Thumb Code     0  startup_gd32f4xx.o(.text)
    DMA0_Channel1_IRQHandler                 0x0800030b   Thumb Code     0  startup_gd32f4xx.o(.text)
    DMA0_Channel2_IRQHandler                 0x0800030b   Thumb Code     0  startup_gd32f4xx.o(.text)
    DMA0_Channel3_IRQHandler                 0x0800030b   Thumb Code     0  startup_gd32f4xx.o(.text)
    DMA0_Channel4_IRQHandler                 0x0800030b   Thumb Code     0  startup_gd32f4xx.o(.text)
    DMA0_Channel5_IRQHandler                 0x0800030b   Thumb Code     0  startup_gd32f4xx.o(.text)
    DMA0_Channel6_IRQHandler                 0x0800030b   Thumb Code     0  startup_gd32f4xx.o(.text)
    DMA0_Channel7_IRQHandler                 0x0800030b   Thumb Code     0  startup_gd32f4xx.o(.text)
    DMA1_Channel0_IRQHandler                 0x0800030b   Thumb Code     0  startup_gd32f4xx.o(.text)
    DMA1_Channel1_IRQHandler                 0x0800030b   Thumb Code     0  startup_gd32f4xx.o(.text)
    DMA1_Channel2_IRQHandler                 0x0800030b   Thumb Code     0  startup_gd32f4xx.o(.text)
    DMA1_Channel3_IRQHandler                 0x0800030b   Thumb Code     0  startup_gd32f4xx.o(.text)
    DMA1_Channel4_IRQHandler                 0x0800030b   Thumb Code     0  startup_gd32f4xx.o(.text)
    DMA1_Channel5_IRQHandler                 0x0800030b   Thumb Code     0  startup_gd32f4xx.o(.text)
    DMA1_Channel6_IRQHandler                 0x0800030b   Thumb Code     0  startup_gd32f4xx.o(.text)
    DMA1_Channel7_IRQHandler                 0x0800030b   Thumb Code     0  startup_gd32f4xx.o(.text)
    ENET_IRQHandler                          0x0800030b   Thumb Code     0  startup_gd32f4xx.o(.text)
    ENET_WKUP_IRQHandler                     0x0800030b   Thumb Code     0  startup_gd32f4xx.o(.text)
    EXMC_IRQHandler                          0x0800030b   Thumb Code     0  startup_gd32f4xx.o(.text)
    FMC_IRQHandler                           0x0800030b   Thumb Code     0  startup_gd32f4xx.o(.text)
    FPU_IRQHandler                           0x0800030b   Thumb Code     0  startup_gd32f4xx.o(.text)
    I2C0_ER_IRQHandler                       0x0800030b   Thumb Code     0  startup_gd32f4xx.o(.text)
    I2C0_EV_IRQHandler                       0x0800030b   Thumb Code     0  startup_gd32f4xx.o(.text)
    I2C1_ER_IRQHandler                       0x0800030b   Thumb Code     0  startup_gd32f4xx.o(.text)
    I2C1_EV_IRQHandler                       0x0800030b   Thumb Code     0  startup_gd32f4xx.o(.text)
    I2C2_ER_IRQHandler                       0x0800030b   Thumb Code     0  startup_gd32f4xx.o(.text)
    I2C2_EV_IRQHandler                       0x0800030b   Thumb Code     0  startup_gd32f4xx.o(.text)
    IPA_IRQHandler                           0x0800030b   Thumb Code     0  startup_gd32f4xx.o(.text)
    LVD_IRQHandler                           0x0800030b   Thumb Code     0  startup_gd32f4xx.o(.text)
    RCU_CTC_IRQHandler                       0x0800030b   Thumb Code     0  startup_gd32f4xx.o(.text)
    RTC_Alarm_IRQHandler                     0x0800030b   Thumb Code     0  startup_gd32f4xx.o(.text)
    RTC_WKUP_IRQHandler                      0x0800030b   Thumb Code     0  startup_gd32f4xx.o(.text)
    SDIO_IRQHandler                          0x0800030b   Thumb Code     0  startup_gd32f4xx.o(.text)
    SPI0_IRQHandler                          0x0800030b   Thumb Code     0  startup_gd32f4xx.o(.text)
    SPI1_IRQHandler                          0x0800030b   Thumb Code     0  startup_gd32f4xx.o(.text)
    SPI2_IRQHandler                          0x0800030b   Thumb Code     0  startup_gd32f4xx.o(.text)
    SPI3_IRQHandler                          0x0800030b   Thumb Code     0  startup_gd32f4xx.o(.text)
    SPI4_IRQHandler                          0x0800030b   Thumb Code     0  startup_gd32f4xx.o(.text)
    SPI5_IRQHandler                          0x0800030b   Thumb Code     0  startup_gd32f4xx.o(.text)
    TAMPER_STAMP_IRQHandler                  0x0800030b   Thumb Code     0  startup_gd32f4xx.o(.text)
    TIMER0_BRK_TIMER8_IRQHandler             0x0800030b   Thumb Code     0  startup_gd32f4xx.o(.text)
    TIMER0_CC_IRQHandler                     0x0800030b   Thumb Code     0  startup_gd32f4xx.o(.text)
    TIMER0_TRG_CMT_TIMER10_IRQHandler        0x0800030b   Thumb Code     0  startup_gd32f4xx.o(.text)
    TIMER0_UP_TIMER9_IRQHandler              0x0800030b   Thumb Code     0  startup_gd32f4xx.o(.text)
    TIMER1_IRQHandler                        0x0800030b   Thumb Code     0  startup_gd32f4xx.o(.text)
    TIMER2_IRQHandler                        0x0800030b   Thumb Code     0  startup_gd32f4xx.o(.text)
    TIMER3_IRQHandler                        0x0800030b   Thumb Code     0  startup_gd32f4xx.o(.text)
    TIMER4_IRQHandler                        0x0800030b   Thumb Code     0  startup_gd32f4xx.o(.text)
    TIMER5_DAC_IRQHandler                    0x0800030b   Thumb Code     0  startup_gd32f4xx.o(.text)
    TIMER6_IRQHandler                        0x0800030b   Thumb Code     0  startup_gd32f4xx.o(.text)
    TIMER7_BRK_TIMER11_IRQHandler            0x0800030b   Thumb Code     0  startup_gd32f4xx.o(.text)
    TIMER7_CC_IRQHandler                     0x0800030b   Thumb Code     0  startup_gd32f4xx.o(.text)
    TIMER7_TRG_CMT_TIMER13_IRQHandler        0x0800030b   Thumb Code     0  startup_gd32f4xx.o(.text)
    TIMER7_UP_TIMER12_IRQHandler             0x0800030b   Thumb Code     0  startup_gd32f4xx.o(.text)
    TLI_ER_IRQHandler                        0x0800030b   Thumb Code     0  startup_gd32f4xx.o(.text)
    TLI_IRQHandler                           0x0800030b   Thumb Code     0  startup_gd32f4xx.o(.text)
    TRNG_IRQHandler                          0x0800030b   Thumb Code     0  startup_gd32f4xx.o(.text)
    UART3_IRQHandler                         0x0800030b   Thumb Code     0  startup_gd32f4xx.o(.text)
    UART4_IRQHandler                         0x0800030b   Thumb Code     0  startup_gd32f4xx.o(.text)
    UART6_IRQHandler                         0x0800030b   Thumb Code     0  startup_gd32f4xx.o(.text)
    UART7_IRQHandler                         0x0800030b   Thumb Code     0  startup_gd32f4xx.o(.text)
    USART1_IRQHandler                        0x0800030b   Thumb Code     0  startup_gd32f4xx.o(.text)
    USART2_IRQHandler                        0x0800030b   Thumb Code     0  startup_gd32f4xx.o(.text)
    USART5_IRQHandler                        0x0800030b   Thumb Code     0  startup_gd32f4xx.o(.text)
    USBFS_IRQHandler                         0x0800030b   Thumb Code     0  startup_gd32f4xx.o(.text)
    USBFS_WKUP_IRQHandler                    0x0800030b   Thumb Code     0  startup_gd32f4xx.o(.text)
    USBHS_EP1_In_IRQHandler                  0x0800030b   Thumb Code     0  startup_gd32f4xx.o(.text)
    USBHS_EP1_Out_IRQHandler                 0x0800030b   Thumb Code     0  startup_gd32f4xx.o(.text)
    USBHS_IRQHandler                         0x0800030b   Thumb Code     0  startup_gd32f4xx.o(.text)
    USBHS_WKUP_IRQHandler                    0x0800030b   Thumb Code     0  startup_gd32f4xx.o(.text)
    WWDGT_IRQHandler                         0x0800030b   Thumb Code     0  startup_gd32f4xx.o(.text)
    __aeabi_ldivmod                          0x08000315   Thumb Code    98  ldiv.o(.text)
    __aeabi_memcpy                           0x08000377   Thumb Code    36  memcpya.o(.text)
    __aeabi_memcpy4                          0x08000377   Thumb Code     0  memcpya.o(.text)
    __aeabi_memcpy8                          0x08000377   Thumb Code     0  memcpya.o(.text)
    __aeabi_memset                           0x0800039b   Thumb Code    14  memseta.o(.text)
    __aeabi_memset4                          0x0800039b   Thumb Code     0  memseta.o(.text)
    __aeabi_memset8                          0x0800039b   Thumb Code     0  memseta.o(.text)
    __aeabi_memclr                           0x080003a9   Thumb Code     4  memseta.o(.text)
    __aeabi_memclr4                          0x080003a9   Thumb Code     0  memseta.o(.text)
    __aeabi_memclr8                          0x080003a9   Thumb Code     0  memseta.o(.text)
    _memset$wrapper                          0x080003ad   Thumb Code    18  memseta.o(.text)
    strcat                                   0x080003bf   Thumb Code    24  strcat.o(.text)
    strstr                                   0x080003d7   Thumb Code    36  strstr.o(.text)
    strncpy                                  0x080003fb   Thumb Code    24  strncpy.o(.text)
    strlen                                   0x08000413   Thumb Code    14  strlen.o(.text)
    strcmp                                   0x08000421   Thumb Code    28  strcmp.o(.text)
    memcmp                                   0x0800043d   Thumb Code    26  memcmp.o(.text)
    strcpy                                   0x08000457   Thumb Code    18  strcpy.o(.text)
    strncmp                                  0x08000469   Thumb Code    30  strncmp.o(.text)
    strrchr                                  0x08000487   Thumb Code    32  strrchr.o(.text)
    strtol                                   0x080004a7   Thumb Code   112  strtol.o(.text)
    atol                                     0x08000517   Thumb Code    26  atol.o(.text)
    __aeabi_uldivmod                         0x08000531   Thumb Code    98  uldiv.o(.text)
    __rt_ctype_table                         0x08000595   Thumb Code     4  ctype_o.o(.text)
    _strtoul                                 0x0800059d   Thumb Code   158  _strtoul.o(.text)
    __scatterload                            0x0800063d   Thumb Code    28  init.o(.text)
    __scatterload_rt2                        0x0800063d   Thumb Code     0  init.o(.text)
    __aeabi_llsl                             0x08000661   Thumb Code    30  llshl.o(.text)
    __semihosting_library_function           0x08000661   Thumb Code     0  semi.o(.text)
    _ll_shift_l                              0x08000661   Thumb Code     0  llshl.o(.text)
    __aeabi_llsr                             0x0800067f   Thumb Code    32  llushr.o(.text)
    _ll_ushift_r                             0x0800067f   Thumb Code     0  llushr.o(.text)
    _chval                                   0x0800069f   Thumb Code    28  _chval.o(.text)
    __I$use$semihosting$fputc                0x080006bb   Thumb Code     0  iusesemip.o(.text)
    __decompress                             0x080006bb   Thumb Code     0  __dczerorl2.o(.text)
    __decompress1                            0x080006bb   Thumb Code    86  __dczerorl2.o(.text)
    main                                     0x08000711   Thumb Code    10  components.o(i.$Sub$$main)
    EXTI0_IRQHandler                         0x08000753   Thumb Code    20  drv_gpio.o(i.EXTI0_IRQHandler)
    EXTI10_15_IRQHandler                     0x08000767   Thumb Code    50  drv_gpio.o(i.EXTI10_15_IRQHandler)
    EXTI1_IRQHandler                         0x08000799   Thumb Code    20  drv_gpio.o(i.EXTI1_IRQHandler)
    EXTI2_IRQHandler                         0x080007ad   Thumb Code    20  drv_gpio.o(i.EXTI2_IRQHandler)
    EXTI3_IRQHandler                         0x080007c1   Thumb Code    20  drv_gpio.o(i.EXTI3_IRQHandler)
    EXTI4_IRQHandler                         0x080007d5   Thumb Code    20  drv_gpio.o(i.EXTI4_IRQHandler)
    EXTI5_9_IRQHandler                       0x080007e9   Thumb Code    44  drv_gpio.o(i.EXTI5_9_IRQHandler)
    GD32_GPIO_EXTI_IRQHandler                0x08000815   Thumb Code    48  drv_gpio.o(i.GD32_GPIO_EXTI_IRQHandler)
    SysTick_Handler                          0x0800087f   Thumb Code    18  board.o(i.SysTick_Handler)
    SystemClock_Config                       0x08000891   Thumb Code    66  board.o(i.SystemClock_Config)
    SystemInit                               0x080008d9   Thumb Code    90  system_gd32f4xx.o(i.SystemInit)
    USART0_IRQHandler                        0x08000945   Thumb Code    54  drv_usart.o(i.USART0_IRQHandler)
    __0printf$8                              0x08000985   Thumb Code    22  printf8.o(i.__0printf$8)
    __1printf$8                              0x08000985   Thumb Code     0  printf8.o(i.__0printf$8)
    __2printf                                0x08000985   Thumb Code     0  printf8.o(i.__0printf$8)
    __aeabi_errno_addr                       0x080009a5   Thumb Code     4  errno.o(i.__aeabi_errno_addr)
    __rt_errno_addr                          0x080009a5   Thumb Code     0  errno.o(i.__aeabi_errno_addr)
    __rt_ffs                                 0x080009ad   Thumb Code    64  kservice.o(i.__rt_ffs)
    __scatterload_copy                       0x080009f1   Thumb Code    14  handlers.o(i.__scatterload_copy)
    __scatterload_null                       0x080009ff   Thumb Code     2  handlers.o(i.__scatterload_null)
    __scatterload_zeroinit                   0x08000a01   Thumb Code    14  handlers.o(i.__scatterload_zeroinit)
    cat                                      0x08001585   Thumb Code    70  dfs_file.o(i.cat)
    chdir                                    0x080015e5   Thumb Code   116  dfs_posix.o(i.chdir)
    close                                    0x08001675   Thumb Code    56  dfs_posix.o(i.close)
    closedir                                 0x080016ad   Thumb Code    70  dfs_posix.o(i.closedir)
    cmd_cat                                  0x080016f5   Thumb Code    46  msh_file.o(i.cmd_cat)
    cmd_cd                                   0x08001755   Thumb Code    40  msh_file.o(i.cmd_cd)
    cmd_cp                                   0x0800179d   Thumb Code    34  msh_file.o(i.cmd_cp)
    cmd_df                                   0x080017f1   Thumb Code    50  msh_file.o(i.cmd_df)
    cmd_echo                                 0x08001841   Thumb Code    78  msh_file.o(i.cmd_echo)
    cmd_free                                 0x080018d1   Thumb Code    10  msh.o(i.cmd_free)
    cmd_ls                                   0x080018dd   Thumb Code    20  msh_file.o(i.cmd_ls)
    cmd_mkdir                                0x080018f5   Thumb Code    32  msh_file.o(i.cmd_mkdir)
    cmd_mkfs                                 0x08001971   Thumb Code    60  msh_file.o(i.cmd_mkfs)
    cmd_mv                                   0x080019ed   Thumb Code   170  msh_file.o(i.cmd_mv)
    cmd_ps                                   0x08001b0d   Thumb Code    10  msh.o(i.cmd_ps)
    cmd_pwd                                  0x08001b19   Thumb Code    14  msh_file.o(i.cmd_pwd)
    cmd_rm                                   0x08001b31   Thumb Code   216  msh_file.o(i.cmd_rm)
    copy                                     0x08001cd9   Thumb Code   218  dfs_file.o(i.copy)
    devfs_init                               0x08002041   Thumb Code    12  devfs.o(i.devfs_init)
    df                                       0x08002051   Thumb Code   156  dfs_fs.o(i.df)
    dfs_device_fs_close                      0x0800213d   Thumb Code    38  devfs.o(i.dfs_device_fs_close)
    dfs_device_fs_getdents                   0x08002163   Thumb Code   102  devfs.o(i.dfs_device_fs_getdents)
    dfs_device_fs_ioctl                      0x080021c9   Thumb Code     6  devfs.o(i.dfs_device_fs_ioctl)
    dfs_device_fs_mount                      0x080021cf   Thumb Code     4  devfs.o(i.dfs_device_fs_mount)
    dfs_device_fs_open                       0x080021d3   Thumb Code   170  devfs.o(i.dfs_device_fs_open)
    dfs_device_fs_read                       0x08002281   Thumb Code    24  devfs.o(i.dfs_device_fs_read)
    dfs_device_fs_stat                       0x08002299   Thumb Code   102  devfs.o(i.dfs_device_fs_stat)
    dfs_device_fs_write                      0x080022ff   Thumb Code    24  devfs.o(i.dfs_device_fs_write)
    dfs_file_close                           0x08002317   Thumb Code    44  dfs_file.o(i.dfs_file_close)
    dfs_file_getdents                        0x08002343   Thumb Code    28  dfs_file.o(i.dfs_file_getdents)
    dfs_file_lseek                           0x0800235f   Thumb Code    36  dfs_file.o(i.dfs_file_lseek)
    dfs_file_open                            0x08002385   Thumb Code   188  dfs_file.o(i.dfs_file_open)
    dfs_file_read                            0x08002445   Thumb Code    42  dfs_file.o(i.dfs_file_read)
    dfs_file_rename                          0x0800246f   Thumb Code   134  dfs_file.o(i.dfs_file_rename)
    dfs_file_stat                            0x080024f5   Thumb Code   150  dfs_file.o(i.dfs_file_stat)
    dfs_file_unlink                          0x0800258d   Thumb Code   118  dfs_file.o(i.dfs_file_unlink)
    dfs_file_write                           0x08002609   Thumb Code    22  dfs_file.o(i.dfs_file_write)
    dfs_filesystem_lookup                    0x08002621   Thumb Code    94  dfs_fs.o(i.dfs_filesystem_lookup)
    dfs_init                                 0x08002685   Thumb Code    92  dfs.o(i.dfs_init)
    dfs_lock                                 0x08002715   Thumb Code    20  dfs.o(i.dfs_lock)
    dfs_mkfs                                 0x0800272d   Thumb Code    96  dfs_fs.o(i.dfs_mkfs)
    dfs_mount                                0x08002791   Thumb Code   312  dfs_fs.o(i.dfs_mount)
    dfs_normalize_path                       0x080028dd   Thumb Code   248  dfs.o(i.dfs_normalize_path)
    dfs_register                             0x080029e1   Thumb Code    98  dfs_fs.o(i.dfs_register)
    dfs_statfs                               0x08002a49   Thumb Code    30  dfs_fs.o(i.dfs_statfs)
    dfs_subdir                               0x08002a67   Thumb Code    48  dfs.o(i.dfs_subdir)
    dfs_unlock                               0x08002a99   Thumb Code     6  dfs.o(i.dfs_unlock)
    exti_init                                0x08002bc1   Thumb Code    98  gd32f4xx_exti.o(i.exti_init)
    exti_interrupt_flag_clear                0x08002c29   Thumb Code     6  gd32f4xx_exti.o(i.exti_interrupt_flag_clear)
    exti_interrupt_flag_get                  0x08002c35   Thumb Code    26  gd32f4xx_exti.o(i.exti_interrupt_flag_get)
    fal_flash_device_find                    0x08003545   Thumb Code    36  fal_flash.o(i.fal_flash_device_find)
    fal_flash_init                           0x080035c1   Thumb Code    36  fal_flash.o(i.fal_flash_init)
    fal_init                                 0x08003609   Thumb Code    74  fal.o(i.fal_init)
    fal_init_check                           0x08003715   Thumb Code     6  fal.o(i.fal_init_check)
    fal_partition_erase                      0x08003721   Thumb Code   134  fal_partition.o(i.fal_partition_erase)
    fal_partition_find                       0x08003845   Thumb Code    46  fal_partition.o(i.fal_partition_find)
    fal_partition_init                       0x08003879   Thumb Code   108  fal_partition.o(i.fal_partition_init)
    fal_partition_read                       0x08003919   Thumb Code   138  fal_partition.o(i.fal_partition_read)
    fal_partition_write                      0x08003a3d   Thumb Code   138  fal_partition.o(i.fal_partition_write)
    fal_show_part_table                      0x08003b65   Thumb Code   250  fal_partition.o(i.fal_show_part_table)
    fastlz_compress_level                    0x0800461d   Thumb Code    44  fastlz.o(i.fastlz_compress_level)
    fastlz_decompress                        0x08004649   Thumb Code    36  fastlz.o(i.fastlz_decompress)
    fastlz_test                              0x08004825   Thumb Code   204  fastlz_sample.o(i.fastlz_test)
    fd_get                                   0x08004a21   Thumb Code    66  dfs.o(i.fd_get)
    fd_is_open                               0x08004a6d   Thumb Code   140  dfs.o(i.fd_is_open)
    fd_new                                   0x08004b01   Thumb Code    56  dfs.o(i.fd_new)
    fd_put                                   0x08004b41   Thumb Code    66  dfs.o(i.fd_put)
    finsh_get_password                       0x08004b8d   Thumb Code    12  shell.o(i.finsh_get_password)
    finsh_get_prompt                         0x08004b9d   Thumb Code    92  shell.o(i.finsh_get_prompt)
    finsh_set_device                         0x08004c61   Thumb Code   134  shell.o(i.finsh_set_device)
    finsh_set_password                       0x08004d11   Thumb Code    54  shell.o(i.finsh_set_password)
    finsh_set_prompt                         0x08004d4d   Thumb Code    46  shell.o(i.finsh_set_prompt)
    finsh_set_prompt_mode                    0x08004d81   Thumb Code    16  shell.o(i.finsh_set_prompt_mode)
    finsh_system_function_init               0x08004d95   Thumb Code     8  shell.o(i.finsh_system_function_init)
    finsh_system_init                        0x08004da1   Thumb Code    92  shell.o(i.finsh_system_init)
    finsh_thread_entry                       0x08004e35   Thumb Code   844  shell.o(i.finsh_thread_entry)
    fmc_byte_program                         0x08005295   Thumb Code    52  gd32f4xx_fmc.o(i.fmc_byte_program)
    fmc_flag_clear                           0x080052cd   Thumb Code     6  gd32f4xx_fmc.o(i.fmc_flag_clear)
    fmc_lock                                 0x080052d9   Thumb Code    12  gd32f4xx_fmc.o(i.fmc_lock)
    fmc_page_erase                           0x080052e9   Thumb Code   112  gd32f4xx_fmc.o(i.fmc_page_erase)
    fmc_read_8bit_data                       0x08005361   Thumb Code    46  fmc_operation.o(i.fmc_read_8bit_data)
    fmc_ready_wait                           0x080053bd   Thumb Code    12  gd32f4xx_fmc.o(i.fmc_ready_wait)
    fmc_state_get                            0x080053c9   Thumb Code    56  gd32f4xx_fmc.o(i.fmc_state_get)
    fmc_unlock                               0x08005405   Thumb Code    22  gd32f4xx_fmc.o(i.fmc_unlock)
    fmc_write_8bit_data                      0x08005429   Thumb Code    88  fmc_operation.o(i.fmc_write_8bit_data)
    fputc                                    0x080054d1   Thumb Code    18  fputc.o(i.fputc)
    free                                     0x080054e5   Thumb Code    76  malloc.o(i.free)
    fwdgt_config                             0x08005535   Thumb Code    72  gd32f4xx_fwdgt.o(i.fwdgt_config)
    fwdgt_counter_reload                     0x08005585   Thumb Code    10  gd32f4xx_fwdgt.o(i.fwdgt_counter_reload)
    fwdgt_enable                             0x08005595   Thumb Code    10  gd32f4xx_fwdgt.o(i.fwdgt_enable)
    fwdgt_write_disable                      0x080055a5   Thumb Code     8  gd32f4xx_fwdgt.o(i.fwdgt_write_disable)
    fwdgt_write_enable                       0x080055b1   Thumb Code    10  gd32f4xx_fwdgt.o(i.fwdgt_write_enable)
    gd32_hw_usart_init                       0x080055c1   Thumb Code    62  drv_usart.o(i.gd32_hw_usart_init)
    gd32_uart_gpio_init                      0x08005937   Thumb Code   134  drv_usart.o(i.gd32_uart_gpio_init)
    get_page                                 0x08005a7d   Thumb Code    50  gd32f4xx_fmc.o(i.get_page)
    get_pin                                  0x08005ab5   Thumb Code    22  drv_gpio.o(i.get_pin)
    getcwd                                   0x08005ad1   Thumb Code    28  dfs_posix.o(i.getcwd)
    gpio_af_set                              0x08005af1   Thumb Code    86  gd32f4xx_gpio.o(i.gpio_af_set)
    gpio_bit_write                           0x08005b47   Thumb Code    10  gd32f4xx_gpio.o(i.gpio_bit_write)
    gpio_input_bit_get                       0x08005b51   Thumb Code    10  gd32f4xx_gpio.o(i.gpio_input_bit_get)
    gpio_mode_set                            0x08005b5b   Thumb Code    72  gd32f4xx_gpio.o(i.gpio_mode_set)
    gpio_output_options_set                  0x08005ba3   Thumb Code    62  gd32f4xx_gpio.o(i.gpio_output_options_set)
    hello                                    0x08005c59   Thumb Code    12  cmd.o(i.hello)
    led_create                               0x08005c79   Thumb Code    50  signal_led.o(i.led_create)
    led_set_blink_over_callback              0x08005dd1   Thumb Code     6  signal_led.o(i.led_set_blink_over_callback)
    led_set_mem_operation                    0x08005dd9   Thumb Code    24  signal_led.o(i.led_set_mem_operation)
    led_set_mode                             0x08005df5   Thumb Code    22  signal_led.o(i.led_set_mode)
    led_start                                0x08005e0d   Thumb Code    36  signal_led.o(i.led_start)
    led_stop                                 0x08005e35   Thumb Code    34  signal_led.o(i.led_stop)
    led_ticks                                0x08005e5d   Thumb Code    22  signal_led.o(i.led_ticks)
    list                                     0x08005e79   Thumb Code    50  cmd.o(i.list)
    list_device                              0x08005edd   Thumb Code   152  cmd.o(i.list_device)
    list_event                               0x08005fe1   Thumb Code   182  cmd.o(i.list_event)
    list_fd                                  0x08006111   Thumb Code   148  dfs.o(i.list_fd)
    list_mailbox                             0x080062d1   Thumb Code   198  cmd.o(i.list_mailbox)
    list_mem                                 0x08006411   Thumb Code    32  mem.o(i.list_mem)
    list_memheap                             0x0800647d   Thumb Code   142  cmd.o(i.list_memheap)
    list_mempool                             0x0800658d   Thumb Code   200  cmd.o(i.list_mempool)
    list_msgqueue                            0x080066e1   Thumb Code   190  cmd.o(i.list_msgqueue)
    list_mutex                               0x0800680d   Thumb Code   146  cmd.o(i.list_mutex)
    list_sem                                 0x08006905   Thumb Code   190  cmd.o(i.list_sem)
    list_thread                              0x08006a25   Thumb Code   250  cmd.o(i.list_thread)
    list_timer                               0x08006bdd   Thumb Code   160  cmd.o(i.list_timer)
    ls                                       0x08006d1d   Thumb Code   188  dfs_file.o(i.ls)
    lseek                                    0x08006e35   Thumb Code    96  dfs_posix.o(i.lseek)
    $Super$$main                             0x08006e95   Thumb Code    16  main.o(i.main)
    main_thread_entry                        0x08006eb1   Thumb Code    14  components.o(i.main_thread_entry)
    malloc                                   0x08006ec1   Thumb Code    92  malloc.o(i.malloc)
    memcheck                                 0x08007005   Thumb Code   112  mem.o(i.memcheck)
    memtrace                                 0x080070e9   Thumb Code   158  mem.o(i.memtrace)
    mkdir                                    0x08007235   Thumb Code    82  dfs_posix.o(i.mkdir)
    mkfs                                     0x0800728d   Thumb Code     4  dfs_fs.o(i.mkfs)
    msh_auto_complete                        0x08007291   Thumb Code   166  msh.o(i.msh_auto_complete)
    msh_auto_complete_path                   0x0800734d   Thumb Code   338  msh.o(i.msh_auto_complete_path)
    msh_exec                                 0x080074a9   Thumb Code    90  msh.o(i.msh_exec)
    msh_exec_script                          0x0800751d   Thumb Code   310  msh_file.o(i.msh_exec_script)
    msh_help                                 0x08007669   Thumb Code    58  msh.o(i.msh_help)
    msh_is_used                              0x080076e1   Thumb Code     4  msh.o(i.msh_is_used)
    nvic_irq_disable                         0x080077b5   Thumb Code    22  gd32f4xx_misc.o(i.nvic_irq_disable)
    nvic_irq_enable                          0x080077cd   Thumb Code   144  gd32f4xx_misc.o(i.nvic_irq_enable)
    nvic_priority_group_set                  0x08007861   Thumb Code    10  gd32f4xx_misc.o(i.nvic_priority_group_set)
    nvic_vector_table_set                    0x08007875   Thumb Code    12  gd32f4xx_misc.o(i.nvic_vector_table_set)
    open                                     0x080078a1   Thumb Code    76  dfs_posix.o(i.open)
    opendir                                  0x080078ed   Thumb Code   114  dfs_posix.o(i.opendir)
    qlz_decompress                           0x08007ae5   Thumb Code    62  quicklz.o(i.qlz_decompress)
    qlz_size_compressed                      0x08007c45   Thumb Code    40  quicklz.o(i.qlz_size_compressed)
    qlz_size_decompressed                    0x08007c6d   Thumb Code    42  quicklz.o(i.qlz_size_decompressed)
    qlz_size_header                          0x08007c97   Thumb Code    20  quicklz.o(i.qlz_size_header)
    rcu_clock_freq_get                       0x08007cad   Thumb Code   192  gd32f4xx_rcu.o(i.rcu_clock_freq_get)
    rcu_deinit                               0x08007d85   Thumb Code    88  gd32f4xx_rcu.o(i.rcu_deinit)
    rcu_flag_get                             0x08007ded   Thumb Code    30  gd32f4xx_rcu.o(i.rcu_flag_get)
    rcu_osci_on                              0x08007e11   Thumb Code    26  gd32f4xx_rcu.o(i.rcu_osci_on)
    rcu_osci_stab_wait                       0x08007e31   Thumb Code   232  gd32f4xx_rcu.o(i.rcu_osci_stab_wait)
    rcu_periph_clock_enable                  0x08007f1d   Thumb Code    26  gd32f4xx_rcu.o(i.rcu_periph_clock_enable)
    rcu_periph_reset_disable                 0x08007f3d   Thumb Code    26  gd32f4xx_rcu.o(i.rcu_periph_reset_disable)
    rcu_periph_reset_enable                  0x08007f5d   Thumb Code    26  gd32f4xx_rcu.o(i.rcu_periph_reset_enable)
    read                                     0x08007f7d   Thumb Code    64  dfs_posix.o(i.read)
    readdir                                  0x08007fbd   Thumb Code   106  dfs_posix.o(i.readdir)
    rename                                   0x08008027   Thumb Code    24  dfs_posix.o(i.rename)
    rewinddir                                0x0800803f   Thumb Code    56  dfs_posix.o(i.rewinddir)
    rm                                       0x08008079   Thumb Code    26  dfs_file.o(i.rm)
    rt_application_init                      0x080080a9   Thumb Code    30  components.o(i.rt_application_init)
    rt_calloc                                0x080080d5   Thumb Code    26  mem.o(i.rt_calloc)
    rt_completion_done                       0x080080ef   Thumb Code    58  completion.o(i.rt_completion_done)
    rt_completion_init                       0x08008129   Thumb Code    24  completion.o(i.rt_completion_init)
    rt_components_board_init                 0x08008141   Thumb Code    20  components.o(i.rt_components_board_init)
    rt_components_init                       0x0800815d   Thumb Code    20  components.o(i.rt_components_init)
    rt_console_get_device                    0x08008179   Thumb Code     6  kservice.o(i.rt_console_get_device)
    rt_console_set_device                    0x08008185   Thumb Code    44  kservice.o(i.rt_console_set_device)
    rt_device_close                          0x080081b5   Thumb Code    48  device.o(i.rt_device_close)
    rt_device_control                        0x080081e5   Thumb Code    12  device.o(i.rt_device_control)
    rt_device_find                           0x080081f1   Thumb Code     6  device.o(i.rt_device_find)
    rt_device_open                           0x080081f9   Thumb Code   110  device.o(i.rt_device_open)
    rt_device_pin_register                   0x080082a1   Thumb Code    52  pin.o(i.rt_device_pin_register)
    rt_device_read                           0x080082e5   Thumb Code    36  device.o(i.rt_device_read)
    rt_device_register                       0x08008309   Thumb Code    50  device.o(i.rt_device_register)
    rt_device_set_rx_indicate                0x0800833b   Thumb Code     6  device.o(i.rt_device_set_rx_indicate)
    rt_device_write                          0x08008341   Thumb Code    36  device.o(i.rt_device_write)
    rt_enter_critical                        0x08008365   Thumb Code    22  scheduler.o(i.rt_enter_critical)
    rt_exit_critical                         0x08008381   Thumb Code    52  scheduler.o(i.rt_exit_critical)
    rt_fota_check_hash                       0x08008449   Thumb Code  1452  rt_fota.o(i.rt_fota_check_hash)
    rt_fota_check_upgrade                    0x08008a55   Thumb Code    22  rt_fota.o(i.rt_fota_check_upgrade)
    rt_fota_copy_version                     0x08008a71   Thumb Code   208  rt_fota.o(i.rt_fota_copy_version)
    rt_fota_crc                              0x08008bd1   Thumb Code    20  rt_fota_crc.o(i.rt_fota_crc)
    rt_fota_crc_init                         0x08008be5   Thumb Code    74  rt_fota_crc.o(i.rt_fota_crc_init)
    rt_fota_erase_app_part                   0x08008c39   Thumb Code    66  rt_fota.o(i.rt_fota_erase_app_part)
    rt_fota_info                             0x08008cb5   Thumb Code   824  rt_fota.o(i.rt_fota_info)
    rt_fota_init                             0x08009249   Thumb Code    56  rt_fota.o(i.rt_fota_init)
    rt_fota_part_fw_verify                   0x080092c5   Thumb Code   238  rt_fota.o(i.rt_fota_part_fw_verify)
    rt_fota_step_crc                         0x08009a91   Thumb Code     4  rt_fota_crc.o(i.rt_fota_step_crc)
    rt_fota_thread_entry                     0x08009a95   Thumb Code   326  rt_fota.o(i.rt_fota_thread_entry)
    rt_fota_upgrade                          0x08009cdd   Thumb Code  1396  rt_fota.o(i.rt_fota_upgrade)
    rt_fota_write_app_part                   0x0800a279   Thumb Code    50  rt_fota.o(i.rt_fota_write_app_part)
    rt_free                                  0x0800a2b1   Thumb Code   124  mem.o(i.rt_free)
    rt_hw_board_init                         0x0800a389   Thumb Code    46  board.o(i.rt_hw_board_init)
    rt_hw_console_output                     0x0800a3c9   Thumb Code     2  kservice.o(i.rt_hw_console_output)
    rt_hw_cpu_reset                          0x0800a3cd   Thumb Code     8  cpuport.o(i.rt_hw_cpu_reset)
    rt_hw_hard_fault_exception               0x0800a3dd   Thumb Code   198  cpuport.o(i.rt_hw_hard_fault_exception)
    rt_hw_pin_init                           0x0800a5f5   Thumb Code    10  drv_gpio.o(i.rt_hw_pin_init)
    rt_hw_serial_isr                         0x0800a609   Thumb Code   174  serial.o(i.rt_hw_serial_isr)
    rt_hw_serial_register                    0x0800a6b9   Thumb Code    44  serial.o(i.rt_hw_serial_register)
    rt_hw_stack_init                         0x0800a6fd   Thumb Code    56  cpuport.o(i.rt_hw_stack_init)
    rt_hw_watchdog_register                  0x0800a739   Thumb Code    42  watchdog.o(i.rt_hw_watchdog_register)
    rt_interrupt_enter                       0x0800a7a1   Thumb Code    32  irq.o(i.rt_interrupt_enter)
    rt_interrupt_get_nest                    0x0800a7c5   Thumb Code    18  irq.o(i.rt_interrupt_get_nest)
    rt_interrupt_leave                       0x0800a7dd   Thumb Code    32  irq.o(i.rt_interrupt_leave)
    rt_kprintf                               0x0800a88d   Thumb Code    70  kservice.o(i.rt_kprintf)
    rt_malloc                                0x0800a989   Thumb Code   276  mem.o(i.rt_malloc)
    rt_memcpy                                0x0800aad9   Thumb Code    74  kservice.o(i.rt_memcpy)
    rt_memmove                               0x0800ab23   Thumb Code    46  kservice.o(i.rt_memmove)
    rt_memset                                0x0800ab51   Thumb Code    68  kservice.o(i.rt_memset)
    rt_mutex_init                            0x0800ab95   Thumb Code    40  ipc.o(i.rt_mutex_init)
    rt_mutex_release                         0x0800abbd   Thumb Code   180  ipc.o(i.rt_mutex_release)
    rt_mutex_take                            0x0800ac75   Thumb Code   208  ipc.o(i.rt_mutex_take)
    rt_object_allocate                       0x0800ad4d   Thumb Code    86  object.o(i.rt_object_allocate)
    rt_object_delete                         0x0800ada9   Thumb Code    48  object.o(i.rt_object_delete)
    rt_object_detach                         0x0800addd   Thumb Code    42  object.o(i.rt_object_detach)
    rt_object_find                           0x0800ae0d   Thumb Code    70  object.o(i.rt_object_find)
    rt_object_get_information                0x0800ae55   Thumb Code    30  object.o(i.rt_object_get_information)
    rt_object_init                           0x0800ae79   Thumb Code    90  object.o(i.rt_object_init)
    rt_object_is_systemobject                0x0800aed9   Thumb Code    14  object.o(i.rt_object_is_systemobject)
    rt_pin_get                               0x0800aee9   Thumb Code    16  pin.o(i.rt_pin_get)
    rt_pin_mode                              0x0800aefd   Thumb Code    14  pin.o(i.rt_pin_mode)
    rt_pin_read                              0x0800af11   Thumb Code    12  pin.o(i.rt_pin_read)
    rt_pin_write                             0x0800af21   Thumb Code    14  pin.o(i.rt_pin_write)
    rt_realloc                               0x0800af35   Thumb Code   236  mem.o(i.rt_realloc)
    rt_schedule                              0x0800b031   Thumb Code   200  scheduler.o(i.rt_schedule)
    rt_schedule_insert_thread                0x0800b105   Thumb Code    90  scheduler.o(i.rt_schedule_insert_thread)
    rt_schedule_remove_thread                0x0800b169   Thumb Code    66  scheduler.o(i.rt_schedule_remove_thread)
    rt_sem_create                            0x0800b1b5   Thumb Code    32  ipc.o(i.rt_sem_create)
    rt_sem_delete                            0x0800b1d5   Thumb Code    20  ipc.o(i.rt_sem_delete)
    rt_sem_detach                            0x0800b1e9   Thumb Code    20  ipc.o(i.rt_sem_detach)
    rt_sem_init                              0x0800b1fd   Thumb Code    36  ipc.o(i.rt_sem_init)
    rt_sem_release                           0x0800b221   Thumb Code    90  ipc.o(i.rt_sem_release)
    rt_sem_take                              0x0800b281   Thumb Code   134  ipc.o(i.rt_sem_take)
    rt_set_errno                             0x0800b56d   Thumb Code    26  kservice.o(i.rt_set_errno)
    rt_show_version                          0x0800b58d   Thumb Code     2  kservice.o(i.rt_show_version)
    rt_snprintf                              0x0800b58f   Thumb Code    18  kservice.o(i.rt_snprintf)
    rt_soft_timer_check                      0x0800b5a1   Thumb Code   176  timer.o(i.rt_soft_timer_check)
    rt_sprintf                               0x0800b655   Thumb Code    18  kservice.o(i.rt_sprintf)
    rt_strcmp                                0x0800b667   Thumb Code    24  kservice.o(i.rt_strcmp)
    rt_strdup                                0x0800b67f   Thumb Code    36  kservice.o(i.rt_strdup)
    strdup                                   0x0800b67f   Thumb Code     0  kservice.o(i.rt_strdup)
    rt_strlen                                0x0800b6a3   Thumb Code    16  kservice.o(i.rt_strlen)
    rt_strncmp                               0x0800b6b3   Thumb Code    32  kservice.o(i.rt_strncmp)
    rt_strncpy                               0x0800b6d3   Thumb Code    38  kservice.o(i.rt_strncpy)
    rt_system_heap_init                      0x0800b6f9   Thumb Code   118  mem.o(i.rt_system_heap_init)
    rt_system_scheduler_init                 0x0800b7c5   Thumb Code    44  scheduler.o(i.rt_system_scheduler_init)
    rt_system_scheduler_start                0x0800b7f9   Thumb Code    32  scheduler.o(i.rt_system_scheduler_start)
    rt_system_timer_init                     0x0800b821   Thumb Code    18  timer.o(i.rt_system_timer_init)
    rt_system_timer_thread_init              0x0800b839   Thumb Code    56  timer.o(i.rt_system_timer_thread_init)
    rt_thread_control                        0x0800b885   Thumb Code   118  thread.o(i.rt_thread_control)
    rt_thread_create                         0x0800b8fb   Thumb Code    72  thread.o(i.rt_thread_create)
    rt_thread_delay                          0x0800b943   Thumb Code     4  thread.o(i.rt_thread_delay)
    rt_thread_delete                         0x0800b949   Thumb Code    72  thread.o(i.rt_thread_delete)
    rt_thread_detach                         0x0800b995   Thumb Code    90  thread.o(i.rt_thread_detach)
    rt_thread_exit                           0x0800b9f5   Thumb Code    80  thread.o(i.rt_thread_exit)
    rt_thread_idle_excute                    0x0800ba69   Thumb Code    68  idle.o(i.rt_thread_idle_excute)
    rt_thread_idle_init                      0x0800bab1   Thumb Code    80  idle.o(i.rt_thread_idle_init)
    rt_thread_init                           0x0800bb11   Thumb Code    48  thread.o(i.rt_thread_init)
    rt_thread_mdelay                         0x0800bb41   Thumb Code    14  thread.o(i.rt_thread_mdelay)
    rt_thread_resume                         0x0800bb51   Thumb Code    70  thread.o(i.rt_thread_resume)
    rt_thread_self                           0x0800bb9d   Thumb Code     6  thread.o(i.rt_thread_self)
    rt_thread_sleep                          0x0800bba9   Thumb Code    60  thread.o(i.rt_thread_sleep)
    rt_thread_startup                        0x0800bbe9   Thumb Code    40  thread.o(i.rt_thread_startup)
    rt_thread_suspend                        0x0800bc15   Thumb Code    80  thread.o(i.rt_thread_suspend)
    rt_thread_timeout                        0x0800bc69   Thumb Code    32  thread.o(i.rt_thread_timeout)
    rt_tick_from_millisecond                 0x0800bcc1   Thumb Code    50  clock.o(i.rt_tick_from_millisecond)
    rt_tick_get                              0x0800bcf5   Thumb Code     6  clock.o(i.rt_tick_get)
    rt_tick_increase                         0x0800bd01   Thumb Code    48  clock.o(i.rt_tick_increase)
    rt_tick_set                              0x0800bd35   Thumb Code    20  clock.o(i.rt_tick_set)
    rt_timer_check                           0x0800bd4d   Thumb Code   164  timer.o(i.rt_timer_check)
    rt_timer_control                         0x0800bdf5   Thumb Code    72  timer.o(i.rt_timer_control)
    rt_timer_detach                          0x0800be3d   Thumb Code    40  timer.o(i.rt_timer_detach)
    rt_timer_init                            0x0800be65   Thumb Code    40  timer.o(i.rt_timer_init)
    rt_timer_start                           0x0800beb1   Thumb Code   198  timer.o(i.rt_timer_start)
    rt_timer_stop                            0x0800bf85   Thumb Code    56  timer.o(i.rt_timer_stop)
    rt_vsnprintf                             0x0800bfc1   Thumb Code   604  kservice.o(i.rt_vsnprintf)
    rt_vsprintf                              0x0800c225   Thumb Code    12  kservice.o(i.rt_vsprintf)
    rtthread_startup                         0x0800c299   Thumb Code    38  components.o(i.rtthread_startup)
    rym_recv_on_device                       0x0800c2c1   Thumb Code   148  ymodem.o(i.rym_recv_on_device)
    stat                                     0x0800c499   Thumb Code    20  dfs_posix.o(i.stat)
    syscfg_exti_line_config                  0x0800c4c9   Thumb Code    62  gd32f4xx_syscfg.o(i.syscfg_exti_line_config)
    systick_clksource_set                    0x0800c5b9   Thumb Code    24  gd32f4xx_misc.o(i.systick_clksource_set)
    tiny_aes_crypt_cbc                       0x0800c5d1   Thumb Code   134  tiny_aes.o(i.tiny_aes_crypt_cbc)
    tiny_aes_crypt_ecb                       0x0800c659   Thumb Code  1740  tiny_aes.o(i.tiny_aes_crypt_ecb)
    tiny_aes_setkey_dec                      0x0800cd35   Thumb Code   200  tiny_aes.o(i.tiny_aes_setkey_dec)
    tiny_aes_setkey_enc                      0x0800ce01   Thumb Code   396  tiny_aes.o(i.tiny_aes_setkey_enc)
    unlink                                   0x0800cf91   Thumb Code    24  dfs_posix.o(i.unlink)
    usart_baudrate_set                       0x0800d079   Thumb Code   118  gd32f4xx_usart.o(i.usart_baudrate_set)
    usart_data_receive                       0x0800d0f9   Thumb Code     8  gd32f4xx_usart.o(i.usart_data_receive)
    usart_data_transmit                      0x0800d101   Thumb Code     8  gd32f4xx_usart.o(i.usart_data_transmit)
    usart_enable                             0x0800d109   Thumb Code    10  gd32f4xx_usart.o(i.usart_enable)
    usart_flag_clear                         0x0800d113   Thumb Code    20  gd32f4xx_usart.o(i.usart_flag_clear)
    usart_flag_get                           0x0800d127   Thumb Code    22  gd32f4xx_usart.o(i.usart_flag_get)
    usart_interrupt_disable                  0x0800d13d   Thumb Code    20  gd32f4xx_usart.o(i.usart_interrupt_disable)
    usart_interrupt_enable                   0x0800d151   Thumb Code    20  gd32f4xx_usart.o(i.usart_interrupt_enable)
    usart_interrupt_flag_get                 0x0800d165   Thumb Code    48  gd32f4xx_usart.o(i.usart_interrupt_flag_get)
    usart_parity_config                      0x0800d195   Thumb Code    16  gd32f4xx_usart.o(i.usart_parity_config)
    usart_receive_config                     0x0800d1a5   Thumb Code    12  gd32f4xx_usart.o(i.usart_receive_config)
    usart_stop_bit_set                       0x0800d1b1   Thumb Code    16  gd32f4xx_usart.o(i.usart_stop_bit_set)
    usart_transmit_config                    0x0800d1c1   Thumb Code    12  gd32f4xx_usart.o(i.usart_transmit_config)
    usart_word_length_set                    0x0800d1cd   Thumb Code    16  gd32f4xx_usart.o(i.usart_word_length_set)
    version                                  0x0800d1dd   Thumb Code    10  cmd.o(i.version)
    write                                    0x0800d1e7   Thumb Code    64  dfs_posix.o(i.write)
    ymodem_ota                               0x0800d46d   Thumb Code   152  ymodem_ota.o(i.ymodem_ota)
    gd32_onchip_flash                        0x0800e080   Data          56  drv_flash.o(.constdata)
    __lowest_bit_bitmap                      0x0800e210   Data         256  kservice.o(.constdata)
    __ctype_table                            0x0801059c   Data         129  ctype_o.o(.constdata)
    __fsym_pinMode_name                      0x08010dc9   Data           8  pin.o(.rodata.name)
    __fsym_pinMode_desc                      0x08010dd1   Data          22  pin.o(.rodata.name)
    __fsym_pinWrite_name                     0x08010de7   Data           9  pin.o(.rodata.name)
    __fsym_pinWrite_desc                     0x08010df0   Data          28  pin.o(.rodata.name)
    __fsym_pinRead_name                      0x08010e0c   Data           8  pin.o(.rodata.name)
    __fsym_pinRead_desc                      0x08010e14   Data          30  pin.o(.rodata.name)
    __fsym_pinGet_name                       0x08010e32   Data           7  pin.o(.rodata.name)
    __fsym_pinGet_desc                       0x08010e39   Data          33  pin.o(.rodata.name)
    __fsym___cmd_fota_name                   0x08010e5a   Data          11  rt_fota.o(.rodata.name)
    __fsym___cmd_fota_desc                   0x08010e65   Data          28  rt_fota.o(.rodata.name)
    __fsym___cmd_fal_name                    0x08010e81   Data          10  fal_rtt.o(.rodata.name)
    __fsym___cmd_fal_desc                    0x08010e8b   Data          39  fal_rtt.o(.rodata.name)
    __fsym___cmd_fastlz_test_name            0x08010eb2   Data          18  fastlz_sample.o(.rodata.name)
    __fsym___cmd_fastlz_test_desc            0x08010ec4   Data          36  fastlz_sample.o(.rodata.name)
    __fsym___cmd_list_fd_name                0x08010ee8   Data          14  dfs.o(.rodata.name)
    __fsym___cmd_list_fd_desc                0x08010ef6   Data          21  dfs.o(.rodata.name)
    __fsym_ls_name                           0x08010f0b   Data           3  dfs_file.o(.rodata.name)
    __fsym_ls_desc                           0x08010f0e   Data          24  dfs_file.o(.rodata.name)
    __fsym_rm_name                           0x08010f26   Data           3  dfs_file.o(.rodata.name)
    __fsym_rm_desc                           0x08010f29   Data          28  dfs_file.o(.rodata.name)
    __fsym_cat_name                          0x08010f45   Data           4  dfs_file.o(.rodata.name)
    __fsym_cat_desc                          0x08010f49   Data          11  dfs_file.o(.rodata.name)
    __fsym_copy_name                         0x08010f54   Data           5  dfs_file.o(.rodata.name)
    __fsym_copy_desc                         0x08010f59   Data          17  dfs_file.o(.rodata.name)
    __fsym_mkfs_name                         0x08010f6a   Data           5  dfs_fs.o(.rodata.name)
    __fsym_mkfs_desc                         0x08010f6f   Data          19  dfs_fs.o(.rodata.name)
    __fsym_df_name                           0x08010f82   Data           3  dfs_fs.o(.rodata.name)
    __fsym_df_desc                           0x08010f85   Data          14  dfs_fs.o(.rodata.name)
    __fsym_mkdir_name                        0x08010f93   Data           6  dfs_posix.o(.rodata.name)
    __fsym_mkdir_desc                        0x08010f99   Data          19  dfs_posix.o(.rodata.name)
    __fsym_cd_name                           0x08010fac   Data           3  dfs_posix.o(.rodata.name)
    __fsym_cd_desc                           0x08010faf   Data          33  dfs_posix.o(.rodata.name)
    __fsym_hello_name                        0x08010fd0   Data           6  cmd.o(.rodata.name)
    __fsym_hello_desc                        0x08010fd6   Data          16  cmd.o(.rodata.name)
    __fsym_clear_name                        0x08010fe6   Data           6  cmd.o(.rodata.name)
    __fsym_clear_desc                        0x08010fec   Data          26  cmd.o(.rodata.name)
    __fsym___cmd_clear_name                  0x08011006   Data          12  cmd.o(.rodata.name)
    __fsym___cmd_clear_desc                  0x08011012   Data          26  cmd.o(.rodata.name)
    __fsym_version_name                      0x0801102c   Data           8  cmd.o(.rodata.name)
    __fsym_version_desc                      0x08011034   Data          35  cmd.o(.rodata.name)
    __fsym___cmd_version_name                0x08011057   Data          14  cmd.o(.rodata.name)
    __fsym___cmd_version_desc                0x08011065   Data          35  cmd.o(.rodata.name)
    __fsym_list_thread_name                  0x08011088   Data          12  cmd.o(.rodata.name)
    __fsym_list_thread_desc                  0x08011094   Data          12  cmd.o(.rodata.name)
    __fsym___cmd_list_thread_name            0x080110a0   Data          18  cmd.o(.rodata.name)
    __fsym___cmd_list_thread_desc            0x080110b2   Data          12  cmd.o(.rodata.name)
    __fsym_list_sem_name                     0x080110be   Data           9  cmd.o(.rodata.name)
    __fsym_list_sem_desc                     0x080110c7   Data          25  cmd.o(.rodata.name)
    __fsym___cmd_list_sem_name               0x080110e0   Data          15  cmd.o(.rodata.name)
    __fsym___cmd_list_sem_desc               0x080110ef   Data          25  cmd.o(.rodata.name)
    __fsym_list_event_name                   0x08011108   Data          11  cmd.o(.rodata.name)
    __fsym_list_event_desc                   0x08011113   Data          21  cmd.o(.rodata.name)
    __fsym___cmd_list_event_name             0x08011128   Data          17  cmd.o(.rodata.name)
    __fsym___cmd_list_event_desc             0x08011139   Data          21  cmd.o(.rodata.name)
    __fsym_list_mutex_name                   0x0801114e   Data          11  cmd.o(.rodata.name)
    __fsym_list_mutex_desc                   0x08011159   Data          21  cmd.o(.rodata.name)
    __fsym___cmd_list_mutex_name             0x0801116e   Data          17  cmd.o(.rodata.name)
    __fsym___cmd_list_mutex_desc             0x0801117f   Data          21  cmd.o(.rodata.name)
    __fsym_list_mailbox_name                 0x08011194   Data          13  cmd.o(.rodata.name)
    __fsym_list_mailbox_desc                 0x080111a1   Data          24  cmd.o(.rodata.name)
    __fsym___cmd_list_mailbox_name           0x080111b9   Data          19  cmd.o(.rodata.name)
    __fsym___cmd_list_mailbox_desc           0x080111cc   Data          24  cmd.o(.rodata.name)
    __fsym_list_msgqueue_name                0x080111e4   Data          14  cmd.o(.rodata.name)
    __fsym_list_msgqueue_desc                0x080111f2   Data          29  cmd.o(.rodata.name)
    __fsym___cmd_list_msgqueue_name          0x0801120f   Data          20  cmd.o(.rodata.name)
    __fsym___cmd_list_msgqueue_desc          0x08011223   Data          29  cmd.o(.rodata.name)
    __fsym_list_memheap_name                 0x08011240   Data          13  cmd.o(.rodata.name)
    __fsym_list_memheap_desc                 0x0801124d   Data          27  cmd.o(.rodata.name)
    __fsym___cmd_list_memheap_name           0x08011268   Data          19  cmd.o(.rodata.name)
    __fsym___cmd_list_memheap_desc           0x0801127b   Data          27  cmd.o(.rodata.name)
    __fsym_list_mempool_name                 0x08011296   Data          13  cmd.o(.rodata.name)
    __fsym_list_mempool_desc                 0x080112a3   Data          27  cmd.o(.rodata.name)
    __fsym___cmd_list_mempool_name           0x080112be   Data          19  cmd.o(.rodata.name)
    __fsym___cmd_list_mempool_desc           0x080112d1   Data          27  cmd.o(.rodata.name)
    __fsym_list_timer_name                   0x080112ec   Data          11  cmd.o(.rodata.name)
    __fsym_list_timer_desc                   0x080112f7   Data          21  cmd.o(.rodata.name)
    __fsym___cmd_list_timer_name             0x0801130c   Data          17  cmd.o(.rodata.name)
    __fsym___cmd_list_timer_desc             0x0801131d   Data          21  cmd.o(.rodata.name)
    __fsym_list_device_name                  0x08011332   Data          12  cmd.o(.rodata.name)
    __fsym_list_device_desc                  0x0801133e   Data          22  cmd.o(.rodata.name)
    __fsym___cmd_list_device_name            0x08011354   Data          18  cmd.o(.rodata.name)
    __fsym___cmd_list_device_desc            0x08011366   Data          22  cmd.o(.rodata.name)
    __fsym_list_name                         0x0801137c   Data           5  cmd.o(.rodata.name)
    __fsym_list_desc                         0x08011381   Data          26  cmd.o(.rodata.name)
    __fsym___cmd_help_name                   0x0801139b   Data          11  msh.o(.rodata.name)
    __fsym___cmd_help_desc                   0x080113a6   Data          22  msh.o(.rodata.name)
    __fsym___cmd_ps_name                     0x080113bc   Data           9  msh.o(.rodata.name)
    __fsym___cmd_ps_desc                     0x080113c5   Data          28  msh.o(.rodata.name)
    __fsym___cmd_free_name                   0x080113e1   Data          11  msh.o(.rodata.name)
    __fsym___cmd_free_desc                   0x080113ec   Data          37  msh.o(.rodata.name)
    __fsym___cmd_ls_name                     0x08011411   Data           9  msh_file.o(.rodata.name)
    __fsym___cmd_ls_desc                     0x0801141a   Data          34  msh_file.o(.rodata.name)
    __fsym___cmd_cp_name                     0x0801143c   Data           9  msh_file.o(.rodata.name)
    __fsym___cmd_cp_desc                     0x08011445   Data          21  msh_file.o(.rodata.name)
    __fsym___cmd_mv_name                     0x0801145a   Data           9  msh_file.o(.rodata.name)
    __fsym___cmd_mv_desc                     0x08011463   Data          23  msh_file.o(.rodata.name)
    __fsym___cmd_cat_name                    0x0801147a   Data          10  msh_file.o(.rodata.name)
    __fsym___cmd_cat_desc                    0x08011484   Data          20  msh_file.o(.rodata.name)
    __fsym___cmd_rm_name                     0x08011498   Data           9  msh_file.o(.rodata.name)
    __fsym___cmd_rm_desc                     0x080114a1   Data          28  msh_file.o(.rodata.name)
    __fsym___cmd_cd_name                     0x080114bd   Data           9  msh_file.o(.rodata.name)
    __fsym___cmd_cd_desc                     0x080114c6   Data          36  msh_file.o(.rodata.name)
    __fsym___cmd_pwd_name                    0x080114ea   Data          10  msh_file.o(.rodata.name)
    __fsym___cmd_pwd_desc                    0x080114f4   Data          49  msh_file.o(.rodata.name)
    __fsym___cmd_mkdir_name                  0x08011525   Data          12  msh_file.o(.rodata.name)
    __fsym___cmd_mkdir_desc                  0x08011531   Data          22  msh_file.o(.rodata.name)
    __fsym___cmd_mkfs_name                   0x08011547   Data          11  msh_file.o(.rodata.name)
    __fsym___cmd_mkfs_desc                   0x08011552   Data          29  msh_file.o(.rodata.name)
    __fsym___cmd_df_name                     0x0801156f   Data           9  msh_file.o(.rodata.name)
    __fsym___cmd_df_desc                     0x08011578   Data          10  msh_file.o(.rodata.name)
    __fsym___cmd_echo_name                   0x08011582   Data          11  msh_file.o(.rodata.name)
    __fsym___cmd_echo_desc                   0x0801158d   Data          20  msh_file.o(.rodata.name)
    __fsym_list_mem_name                     0x080115a1   Data           9  mem.o(.rodata.name)
    __fsym_list_mem_desc                     0x080115aa   Data          30  mem.o(.rodata.name)
    __fsym___cmd_memcheck_name               0x080115c8   Data          15  mem.o(.rodata.name)
    __fsym___cmd_memcheck_desc               0x080115d7   Data          18  mem.o(.rodata.name)
    __fsym___cmd_memtrace_name               0x080115e9   Data          15  mem.o(.rodata.name)
    __fsym___cmd_memtrace_desc               0x080115f8   Data          30  mem.o(.rodata.name)
    __fsym___cmd_ymdown_name                 0x08011616   Data          13  ymodem_ota.o(.rodata.name)
    __fsym___cmd_ymdown_desc                 0x08011623   Data          37  ymodem_ota.o(.rodata.name)
    __rt_init_rti_start                      0x08011648   Data           4  components.o(.rti_fn.0)
    __rt_init_rti_board_start                0x0801164c   Data           4  components.o(.rti_fn.0.end)
    __rt_init_rti_board_end                  0x08011650   Data           4  components.o(.rti_fn.1.end)
    __rt_init_rt_fota_crc_init               0x08011654   Data           4  rt_fota_crc.o(.rti_fn.2)
    __rt_init_rt_hw_wdt_init                 0x08011658   Data           4  drv_wdt.o(.rti_fn.2)
    __rt_init_dfs_init                       0x0801165c   Data           4  dfs.o(.rti_fn.2)
    __rt_init_finsh_system_init              0x08011660   Data           4  shell.o(.rti_fn.6)
    __rt_init_rti_end                        0x08011664   Data           4  components.o(.rti_fn.6.end)
    FSymTab$$Base                            0x08011668   Number         0  pin.o(FSymTab)
    __fsym_pinMode                           0x08011668   Data          12  pin.o(FSymTab)
    __fsym_pinWrite                          0x08011674   Data          12  pin.o(FSymTab)
    __fsym_pinRead                           0x08011680   Data          12  pin.o(FSymTab)
    __fsym_pinGet                            0x0801168c   Data          12  pin.o(FSymTab)
    __fsym___cmd_fota                        0x08011698   Data          12  rt_fota.o(FSymTab)
    __fsym___cmd_fal                         0x080116a4   Data          12  fal_rtt.o(FSymTab)
    __fsym___cmd_fastlz_test                 0x080116b0   Data          12  fastlz_sample.o(FSymTab)
    __fsym___cmd_list_fd                     0x080116bc   Data          12  dfs.o(FSymTab)
    __fsym_ls                                0x080116c8   Data          12  dfs_file.o(FSymTab)
    __fsym_rm                                0x080116d4   Data          12  dfs_file.o(FSymTab)
    __fsym_cat                               0x080116e0   Data          12  dfs_file.o(FSymTab)
    __fsym_copy                              0x080116ec   Data          12  dfs_file.o(FSymTab)
    __fsym_mkfs                              0x080116f8   Data          12  dfs_fs.o(FSymTab)
    __fsym_df                                0x08011704   Data          12  dfs_fs.o(FSymTab)
    __fsym_mkdir                             0x08011710   Data          12  dfs_posix.o(FSymTab)
    __fsym_cd                                0x0801171c   Data          12  dfs_posix.o(FSymTab)
    __fsym_hello                             0x08011728   Data          12  cmd.o(FSymTab)
    __fsym_clear                             0x08011734   Data          12  cmd.o(FSymTab)
    __fsym___cmd_clear                       0x08011740   Data          12  cmd.o(FSymTab)
    __fsym_version                           0x0801174c   Data          12  cmd.o(FSymTab)
    __fsym___cmd_version                     0x08011758   Data          12  cmd.o(FSymTab)
    __fsym_list_thread                       0x08011764   Data          12  cmd.o(FSymTab)
    __fsym___cmd_list_thread                 0x08011770   Data          12  cmd.o(FSymTab)
    __fsym_list_sem                          0x0801177c   Data          12  cmd.o(FSymTab)
    __fsym___cmd_list_sem                    0x08011788   Data          12  cmd.o(FSymTab)
    __fsym_list_event                        0x08011794   Data          12  cmd.o(FSymTab)
    __fsym___cmd_list_event                  0x080117a0   Data          12  cmd.o(FSymTab)
    __fsym_list_mutex                        0x080117ac   Data          12  cmd.o(FSymTab)
    __fsym___cmd_list_mutex                  0x080117b8   Data          12  cmd.o(FSymTab)
    __fsym_list_mailbox                      0x080117c4   Data          12  cmd.o(FSymTab)
    __fsym___cmd_list_mailbox                0x080117d0   Data          12  cmd.o(FSymTab)
    __fsym_list_msgqueue                     0x080117dc   Data          12  cmd.o(FSymTab)
    __fsym___cmd_list_msgqueue               0x080117e8   Data          12  cmd.o(FSymTab)
    __fsym_list_memheap                      0x080117f4   Data          12  cmd.o(FSymTab)
    __fsym___cmd_list_memheap                0x08011800   Data          12  cmd.o(FSymTab)
    __fsym_list_mempool                      0x0801180c   Data          12  cmd.o(FSymTab)
    __fsym___cmd_list_mempool                0x08011818   Data          12  cmd.o(FSymTab)
    __fsym_list_timer                        0x08011824   Data          12  cmd.o(FSymTab)
    __fsym___cmd_list_timer                  0x08011830   Data          12  cmd.o(FSymTab)
    __fsym_list_device                       0x0801183c   Data          12  cmd.o(FSymTab)
    __fsym___cmd_list_device                 0x08011848   Data          12  cmd.o(FSymTab)
    __fsym_list                              0x08011854   Data          12  cmd.o(FSymTab)
    __fsym___cmd_help                        0x08011860   Data          12  msh.o(FSymTab)
    __fsym___cmd_ps                          0x0801186c   Data          12  msh.o(FSymTab)
    __fsym___cmd_free                        0x08011878   Data          12  msh.o(FSymTab)
    __fsym___cmd_ls                          0x08011884   Data          12  msh_file.o(FSymTab)
    __fsym___cmd_cp                          0x08011890   Data          12  msh_file.o(FSymTab)
    __fsym___cmd_mv                          0x0801189c   Data          12  msh_file.o(FSymTab)
    __fsym___cmd_cat                         0x080118a8   Data          12  msh_file.o(FSymTab)
    __fsym___cmd_rm                          0x080118b4   Data          12  msh_file.o(FSymTab)
    __fsym___cmd_cd                          0x080118c0   Data          12  msh_file.o(FSymTab)
    __fsym___cmd_pwd                         0x080118cc   Data          12  msh_file.o(FSymTab)
    __fsym___cmd_mkdir                       0x080118d8   Data          12  msh_file.o(FSymTab)
    __fsym___cmd_mkfs                        0x080118e4   Data          12  msh_file.o(FSymTab)
    __fsym___cmd_df                          0x080118f0   Data          12  msh_file.o(FSymTab)
    __fsym___cmd_echo                        0x080118fc   Data          12  msh_file.o(FSymTab)
    __fsym_list_mem                          0x08011908   Data          12  mem.o(FSymTab)
    __fsym___cmd_memcheck                    0x08011914   Data          12  mem.o(FSymTab)
    __fsym___cmd_memtrace                    0x08011920   Data          12  mem.o(FSymTab)
    __fsym___cmd_ymdown                      0x0801192c   Data          12  ymodem_ota.o(FSymTab)
    FSymTab$$Limit                           0x08011938   Number         0  ymodem_ota.o(FSymTab)
    Region$$Table$$Base                      0x08011ab8   Number         0  anon$$obj.o(Region$$Table)
    Region$$Table$$Limit                     0x08011ad8   Number         0  anon$$obj.o(Region$$Table)
    rt_interrupt_from_thread                 0x20000004   Data           4  cpuport.o(.data)
    rt_interrupt_to_thread                   0x20000008   Data           4  cpuport.o(.data)
    rt_thread_switch_interrupt_flag          0x2000000c   Data           4  cpuport.o(.data)
    led_shell_mode                           0x20000014   Data           4  rt_fota.o(.data)
    led_upgrade_mode                         0x20000018   Data           4  rt_fota.o(.data)
    led_on_mode                              0x2000001c   Data           4  rt_fota.o(.data)
    pin_irq_hdr_tab                          0x20000034   Data         192  drv_gpio.o(.data)
    filesystem_operation_table               0x20000118   Data           8  dfs.o(.data)
    working_directory                        0x20000128   Data         256  dfs.o(.data)
    _syscall_table_begin                     0x20000228   Data           4  shell.o(.data)
    _syscall_table_end                       0x2000022c   Data           4  shell.o(.data)
    _sysvar_table_begin                      0x20000230   Data           4  shell.o(.data)
    _sysvar_table_end                        0x20000234   Data           4  shell.o(.data)
    shell                                    0x2000023c   Data           4  shell.o(.data)
    rt_interrupt_nest                        0x20000244   Data           1  irq.o(.data)
    rt_object_trytake_hook                   0x20000280   Data           4  object.o(.data)
    rt_object_take_hook                      0x20000284   Data           4  object.o(.data)
    rt_object_put_hook                       0x20000288   Data           4  object.o(.data)
    rt_current_priority                      0x2000032c   Data           1  scheduler.o(.data)
    rt_current_thread                        0x20000330   Data           4  scheduler.o(.data)
    rt_thread_ready_priority_group           0x20000334   Data           4  scheduler.o(.data)
    rt_thread_defunct                        0x2000033c   Data           8  scheduler.o(.data)
    SystemCoreClock                          0x20000370   Data           4  system_gd32f4xx.o(.data)
    __stdout                                 0x20000394   Data           4  stdout.o(.data)
    __microlib_freelist                      0x20000398   Data           4  mvars.o(.data)
    __microlib_freelist_initialised          0x2000039c   Data           4  mvars.o(.data)
    serial0                                  0x20000848   Data          84  drv_usart.o(.bss)
    filesystem_table                         0x200008ec   Data          32  dfs.o(.bss)
    rt_thread_priority_table                 0x2000130c   Data          64  scheduler.o(.bss)
    __heap_base                              0x200017d0   Data           0  startup_gd32f4xx.o(HEAP)
    __heap_limit                             0x20001bd0   Data           0  startup_gd32f4xx.o(HEAP)
    Image$$RW_IRAM1$$ZI$$Limit               0x20001fd0   Number         0  anon$$obj.o ABSOLUTE
    __initial_sp                             0x20001fd0   Data           0  startup_gd32f4xx.o(STACK)



==============================================================================

Memory Map of the image

  Image Entry point : 0x080001a9

  Load Region LR_IROM1 (Base: 0x08000000, Size: 0x00011e7c, Max: 0x00100000, ABSOLUTE, COMPRESSED[0x00011b70])

    Execution Region ER_IROM1 (Exec base: 0x08000000, Load base: 0x08000000, Size: 0x00011ad8, Max: 0x00100000, ABSOLUTE)

    Exec Addr    Load Addr    Size         Type   Attr      Idx    E Section Name        Object

    0x08000000   0x08000000   0x000001a8   Data   RO         1563    RESET               startup_gd32f4xx.o
    0x080001a8   0x080001a8   0x00000000   Code   RO         6989  * .ARM.Collect$$$$00000000  mc_w.l(entry.o)
    0x080001a8   0x080001a8   0x00000004   Code   RO         7311    .ARM.Collect$$$$00000001  mc_w.l(entry2.o)
    0x080001ac   0x080001ac   0x00000004   Code   RO         7314    .ARM.Collect$$$$00000004  mc_w.l(entry5.o)
    0x080001b0   0x080001b0   0x00000000   Code   RO         7316    .ARM.Collect$$$$00000008  mc_w.l(entry7b.o)
    0x080001b0   0x080001b0   0x00000000   Code   RO         7318    .ARM.Collect$$$$0000000A  mc_w.l(entry8b.o)
    0x080001b0   0x080001b0   0x00000008   Code   RO         7319    .ARM.Collect$$$$0000000B  mc_w.l(entry9a.o)
    0x080001b8   0x080001b8   0x00000000   Code   RO         7321    .ARM.Collect$$$$0000000D  mc_w.l(entry10a.o)
    0x080001b8   0x080001b8   0x00000000   Code   RO         7323    .ARM.Collect$$$$0000000F  mc_w.l(entry11a.o)
    0x080001b8   0x080001b8   0x00000004   Code   RO         7312    .ARM.Collect$$$$00002712  mc_w.l(entry2.o)
    0x080001bc   0x080001bc   0x00000134   Code   RO          393    .text               context_rvds.o
    0x080002f0   0x080002f0   0x00000024   Code   RO         1564    .text               startup_gd32f4xx.o
    0x08000314   0x08000314   0x00000062   Code   RO         6992    .text               mc_w.l(ldiv.o)
    0x08000376   0x08000376   0x00000024   Code   RO         6994    .text               mc_w.l(memcpya.o)
    0x0800039a   0x0800039a   0x00000024   Code   RO         6996    .text               mc_w.l(memseta.o)
